{
  "address": "0x364AF0535F620aBE0f6bcC36D9b58E863d368E90",
  "abi": [
    {
      "inputs": [
        {
          "internalType": "contract ProxyRegistry",
          "name": "registryAddress",
          "type": "address"
        },
        {
          "internalType": "contract TokenTransferProxy",
          "name": "tokenTransferProxyAddress",
          "type": "address"
        },
        {
          "internalType": "contract IERC20",
          "name": "tokenAddress",
          "type": "address"
        },
        {
          "internalType": "address",
          "name": "protocolFeeAddress",
          "type": "address"
        },
        {
          "internalType": "uint32",
          "name": "chainId",
          "type": "uint32"
        }
      ],
      "stateMutability": "nonpayable",
      "type": "constructor"
    },
    {
      "anonymous": false,
      "inputs": [
        {
          "indexed": true,
          "internalType": "bytes32",
          "name": "hash",
          "type": "bytes32"
        },
        {
          "indexed": false,
          "internalType": "address",
          "name": "exchange",
          "type": "address"
        },
        {
          "indexed": true,
          "internalType": "address",
          "name": "maker",
          "type": "address"
        },
        {
          "indexed": false,
          "internalType": "address",
          "name": "taker",
          "type": "address"
        },
        {
          "indexed": false,
          "internalType": "uint256",
          "name": "makerRelayerFee",
          "type": "uint256"
        },
        {
          "indexed": false,
          "internalType": "uint256",
          "name": "takerRelayerFee",
          "type": "uint256"
        },
        {
          "indexed": false,
          "internalType": "uint256",
          "name": "makerProtocolFee",
          "type": "uint256"
        },
        {
          "indexed": false,
          "internalType": "uint256",
          "name": "takerProtocolFee",
          "type": "uint256"
        },
        {
          "indexed": true,
          "internalType": "address",
          "name": "feeRecipient",
          "type": "address"
        },
        {
          "indexed": false,
          "internalType": "enum Market.FeeMethod",
          "name": "feeMethod",
          "type": "uint8"
        },
        {
          "indexed": false,
          "internalType": "enum Market.Side",
          "name": "side",
          "type": "uint8"
        },
        {
          "indexed": false,
          "internalType": "enum Market.SaleKind",
          "name": "saleKind",
          "type": "uint8"
        },
        {
          "indexed": false,
          "internalType": "address",
          "name": "target",
          "type": "address"
        }
      ],
      "name": "OrderApprovedPartOne",
      "type": "event"
    },
    {
      "anonymous": false,
      "inputs": [
        {
          "indexed": true,
          "internalType": "bytes32",
          "name": "hash",
          "type": "bytes32"
        },
        {
          "indexed": false,
          "internalType": "enum Market.HowToCall",
          "name": "howToCall",
          "type": "uint8"
        },
        {
          "indexed": false,
          "internalType": "bytes",
          "name": "callData",
          "type": "bytes"
        },
        {
          "indexed": false,
          "internalType": "bytes",
          "name": "replacementPattern",
          "type": "bytes"
        },
        {
          "indexed": false,
          "internalType": "address",
          "name": "staticTarget",
          "type": "address"
        },
        {
          "indexed": false,
          "internalType": "bytes",
          "name": "staticExtradata",
          "type": "bytes"
        },
        {
          "indexed": false,
          "internalType": "address",
          "name": "paymentToken",
          "type": "address"
        },
        {
          "indexed": false,
          "internalType": "uint256",
          "name": "basePrice",
          "type": "uint256"
        },
        {
          "indexed": false,
          "internalType": "uint256",
          "name": "extra",
          "type": "uint256"
        },
        {
          "indexed": false,
          "internalType": "uint256",
          "name": "listingTime",
          "type": "uint256"
        },
        {
          "indexed": false,
          "internalType": "uint256",
          "name": "expirationTime",
          "type": "uint256"
        },
        {
          "indexed": false,
          "internalType": "uint256",
          "name": "salt",
          "type": "uint256"
        },
        {
          "indexed": false,
          "internalType": "bool",
          "name": "orderbookInclusionDesired",
          "type": "bool"
        }
      ],
      "name": "OrderApprovedPartTwo",
      "type": "event"
    },
    {
      "anonymous": false,
      "inputs": [
        {
          "indexed": true,
          "internalType": "bytes32",
          "name": "hash",
          "type": "bytes32"
        }
      ],
      "name": "OrderCancelled",
      "type": "event"
    },
    {
      "anonymous": false,
      "inputs": [
        {
          "indexed": false,
          "internalType": "bytes32",
          "name": "buyHash",
          "type": "bytes32"
        },
        {
          "indexed": false,
          "internalType": "bytes32",
          "name": "sellHash",
          "type": "bytes32"
        },
        {
          "indexed": true,
          "internalType": "address",
          "name": "maker",
          "type": "address"
        },
        {
          "indexed": true,
          "internalType": "address",
          "name": "taker",
          "type": "address"
        },
        {
          "indexed": false,
          "internalType": "uint256",
          "name": "price",
          "type": "uint256"
        },
        {
          "indexed": true,
          "internalType": "bytes32",
          "name": "metadata",
          "type": "bytes32"
        }
      ],
      "name": "OrdersMatched",
      "type": "event"
    },
    {
      "anonymous": false,
      "inputs": [
        {
          "indexed": true,
          "internalType": "address",
          "name": "previousOwner",
          "type": "address"
        },
        {
          "indexed": true,
          "internalType": "address",
          "name": "newOwner",
          "type": "address"
        }
      ],
      "name": "OwnershipTransferred",
      "type": "event"
    },
    {
      "inputs": [],
      "name": "DOMAIN_SEPARATOR",
      "outputs": [
        {
          "internalType": "bytes32",
          "name": "",
          "type": "bytes32"
        }
      ],
      "stateMutability": "view",
      "type": "function"
    },
    {
      "inputs": [],
      "name": "INVERSE_BASIS_POINT",
      "outputs": [
        {
          "internalType": "uint256",
          "name": "",
          "type": "uint256"
        }
      ],
      "stateMutability": "view",
      "type": "function"
    },
    {
      "inputs": [
        {
          "internalType": "address[7]",
          "name": "addrs",
          "type": "address[7]"
        },
        {
          "internalType": "uint256[9]",
          "name": "uints",
          "type": "uint256[9]"
        },
        {
          "internalType": "enum Market.FeeMethod",
          "name": "feeMethod",
          "type": "uint8"
        },
        {
          "internalType": "enum Market.Side",
          "name": "side",
          "type": "uint8"
        },
        {
          "internalType": "enum Market.SaleKind",
          "name": "saleKind",
          "type": "uint8"
        },
        {
          "internalType": "enum Market.HowToCall",
          "name": "howToCall",
          "type": "uint8"
        },
        {
          "internalType": "bytes",
          "name": "callData",
          "type": "bytes"
        },
        {
          "internalType": "bytes",
          "name": "replacementPattern",
          "type": "bytes"
        },
        {
          "internalType": "bytes",
          "name": "staticExtradata",
          "type": "bytes"
        },
        {
          "internalType": "bool",
          "name": "orderbookInclusionDesired",
          "type": "bool"
        }
      ],
      "name": "approveOrder_",
      "outputs": [],
      "stateMutability": "nonpayable",
      "type": "function"
    },
    {
      "inputs": [
        {
          "internalType": "bytes32",
          "name": "",
          "type": "bytes32"
        }
      ],
      "name": "approvedOrders",
      "outputs": [
        {
          "internalType": "bool",
          "name": "",
          "type": "bool"
        }
      ],
      "stateMutability": "view",
      "type": "function"
    },
    {
      "inputs": [
        {
          "internalType": "address[14]",
          "name": "addrs",
          "type": "address[14]"
        },
        {
          "internalType": "uint256[18]",
          "name": "uints",
          "type": "uint256[18]"
        },
        {
          "internalType": "uint8[8]",
          "name": "feeMethodsSidesKindsHowToCalls",
          "type": "uint8[8]"
        },
        {
          "internalType": "bytes",
          "name": "calldataBuy",
          "type": "bytes"
        },
        {
          "internalType": "bytes",
          "name": "calldataSell",
          "type": "bytes"
        },
        {
          "internalType": "bytes",
          "name": "replacementPatternBuy",
          "type": "bytes"
        },
        {
          "internalType": "bytes",
          "name": "replacementPatternSell",
          "type": "bytes"
        },
        {
          "internalType": "bytes",
          "name": "staticExtradataBuy",
          "type": "bytes"
        },
        {
          "internalType": "bytes",
          "name": "staticExtradataSell",
          "type": "bytes"
        },
        {
          "internalType": "uint8[2]",
          "name": "vs",
          "type": "uint8[2]"
        },
        {
          "internalType": "bytes32[5]",
          "name": "rssMetadata",
          "type": "bytes32[5]"
        }
      ],
      "name": "atomicMatch_",
      "outputs": [],
      "stateMutability": "payable",
      "type": "function"
    },
    {
      "inputs": [
        {
          "internalType": "address[7]",
          "name": "addrs",
          "type": "address[7]"
        },
        {
          "internalType": "uint256[9]",
          "name": "uints",
          "type": "uint256[9]"
        },
        {
          "internalType": "enum Market.FeeMethod",
          "name": "feeMethod",
          "type": "uint8"
        },
        {
          "internalType": "enum Market.Side",
          "name": "side",
          "type": "uint8"
        },
        {
          "internalType": "enum Market.SaleKind",
          "name": "saleKind",
          "type": "uint8"
        },
        {
          "internalType": "enum Market.HowToCall",
          "name": "howToCall",
          "type": "uint8"
        },
        {
          "internalType": "bytes",
          "name": "callData",
          "type": "bytes"
        },
        {
          "internalType": "bytes",
          "name": "replacementPattern",
          "type": "bytes"
        },
        {
          "internalType": "bytes",
          "name": "staticExtradata",
          "type": "bytes"
        }
      ],
      "name": "calculateCurrentPrice_",
      "outputs": [
        {
          "internalType": "uint256",
          "name": "",
          "type": "uint256"
        }
      ],
      "stateMutability": "view",
      "type": "function"
    },
    {
      "inputs": [
        {
          "internalType": "enum Market.Side",
          "name": "side",
          "type": "uint8"
        },
        {
          "internalType": "enum Market.SaleKind",
          "name": "saleKind",
          "type": "uint8"
        },
        {
          "internalType": "uint256",
          "name": "basePrice",
          "type": "uint256"
        },
        {
          "internalType": "uint256",
          "name": "extra",
          "type": "uint256"
        },
        {
          "internalType": "uint256",
          "name": "listingTime",
          "type": "uint256"
        },
        {
          "internalType": "uint256",
          "name": "expirationTime",
          "type": "uint256"
        }
      ],
      "name": "calculateFinalPrice",
      "outputs": [
        {
          "internalType": "uint256",
          "name": "",
          "type": "uint256"
        }
      ],
      "stateMutability": "view",
      "type": "function"
    },
    {
      "inputs": [
        {
          "internalType": "address[14]",
          "name": "addrs",
          "type": "address[14]"
        },
        {
          "internalType": "uint256[18]",
          "name": "uints",
          "type": "uint256[18]"
        },
        {
          "internalType": "uint8[8]",
          "name": "feeMethodsSidesKindsHowToCalls",
          "type": "uint8[8]"
        },
        {
          "internalType": "bytes",
          "name": "calldataBuy",
          "type": "bytes"
        },
        {
          "internalType": "bytes",
          "name": "calldataSell",
          "type": "bytes"
        },
        {
          "internalType": "bytes",
          "name": "replacementPatternBuy",
          "type": "bytes"
        },
        {
          "internalType": "bytes",
          "name": "replacementPatternSell",
          "type": "bytes"
        },
        {
          "internalType": "bytes",
          "name": "staticExtradataBuy",
          "type": "bytes"
        },
        {
          "internalType": "bytes",
          "name": "staticExtradataSell",
          "type": "bytes"
        }
      ],
      "name": "calculateMatchPrice_",
      "outputs": [
        {
          "internalType": "uint256",
          "name": "",
          "type": "uint256"
        }
      ],
      "stateMutability": "view",
      "type": "function"
    },
    {
      "inputs": [
        {
          "internalType": "address[7]",
          "name": "addrs",
          "type": "address[7]"
        },
        {
          "internalType": "uint256[9]",
          "name": "uints",
          "type": "uint256[9]"
        },
        {
          "internalType": "enum Market.FeeMethod",
          "name": "feeMethod",
          "type": "uint8"
        },
        {
          "internalType": "enum Market.Side",
          "name": "side",
          "type": "uint8"
        },
        {
          "internalType": "enum Market.SaleKind",
          "name": "saleKind",
          "type": "uint8"
        },
        {
          "internalType": "enum Market.HowToCall",
          "name": "howToCall",
          "type": "uint8"
        },
        {
          "internalType": "bytes",
          "name": "callData",
          "type": "bytes"
        },
        {
          "internalType": "bytes",
          "name": "replacementPattern",
          "type": "bytes"
        },
        {
          "internalType": "bytes",
          "name": "staticExtradata",
          "type": "bytes"
        },
        {
          "internalType": "uint8",
          "name": "v",
          "type": "uint8"
        },
        {
          "internalType": "bytes32[2]",
          "name": "rs",
          "type": "bytes32[2]"
        }
      ],
      "name": "cancelOrder_",
      "outputs": [],
      "stateMutability": "nonpayable",
      "type": "function"
    },
    {
      "inputs": [
        {
          "internalType": "bytes32",
          "name": "",
          "type": "bytes32"
        }
      ],
      "name": "cancelledOrFinalized",
      "outputs": [
        {
          "internalType": "bool",
          "name": "",
          "type": "bool"
        }
      ],
      "stateMutability": "view",
      "type": "function"
    },
    {
      "inputs": [],
      "name": "exchangeToken",
      "outputs": [
        {
          "internalType": "contract IERC20",
          "name": "",
          "type": "address"
        }
      ],
      "stateMutability": "view",
      "type": "function"
    },
    {
      "inputs": [
        {
          "internalType": "bytes",
          "name": "array",
          "type": "bytes"
        },
        {
          "internalType": "bytes",
          "name": "desired",
          "type": "bytes"
        },
        {
          "internalType": "bytes",
          "name": "mask",
          "type": "bytes"
        }
      ],
      "name": "guardedArrayReplace",
      "outputs": [
        {
          "internalType": "bytes",
          "name": "",
          "type": "bytes"
        }
      ],
      "stateMutability": "pure",
      "type": "function"
    },
    {
      "inputs": [
        {
          "internalType": "address[7]",
          "name": "addrs",
          "type": "address[7]"
        },
        {
          "internalType": "uint256[9]",
          "name": "uints",
          "type": "uint256[9]"
        },
        {
          "internalType": "enum Market.FeeMethod",
          "name": "feeMethod",
          "type": "uint8"
        },
        {
          "internalType": "enum Market.Side",
          "name": "side",
          "type": "uint8"
        },
        {
          "internalType": "enum Market.SaleKind",
          "name": "saleKind",
          "type": "uint8"
        },
        {
          "internalType": "enum Market.HowToCall",
          "name": "howToCall",
          "type": "uint8"
        },
        {
          "internalType": "bytes",
          "name": "callData",
          "type": "bytes"
        },
        {
          "internalType": "bytes",
          "name": "replacementPattern",
          "type": "bytes"
        },
        {
          "internalType": "bytes",
          "name": "staticExtradata",
          "type": "bytes"
        }
      ],
      "name": "hashToSign_",
      "outputs": [
        {
          "internalType": "bytes32",
          "name": "",
          "type": "bytes32"
        }
      ],
      "stateMutability": "view",
      "type": "function"
    },
    {
      "inputs": [],
      "name": "minimumMakerProtocolFee",
      "outputs": [
        {
          "internalType": "uint256",
          "name": "",
          "type": "uint256"
        }
      ],
      "stateMutability": "view",
      "type": "function"
    },
    {
      "inputs": [],
      "name": "minimumTakerProtocolFee",
      "outputs": [
        {
          "internalType": "uint256",
          "name": "",
          "type": "uint256"
        }
      ],
      "stateMutability": "view",
      "type": "function"
    },
    {
      "inputs": [],
      "name": "name",
      "outputs": [
        {
          "internalType": "string",
          "name": "",
          "type": "string"
        }
      ],
      "stateMutability": "view",
      "type": "function"
    },
    {
      "inputs": [
        {
          "internalType": "bytes",
          "name": "buyCalldata",
          "type": "bytes"
        },
        {
          "internalType": "bytes",
          "name": "buyReplacementPattern",
          "type": "bytes"
        },
        {
          "internalType": "bytes",
          "name": "sellCalldata",
          "type": "bytes"
        },
        {
          "internalType": "bytes",
          "name": "sellReplacementPattern",
          "type": "bytes"
        }
      ],
      "name": "orderCalldataCanMatch",
      "outputs": [
        {
          "internalType": "bool",
          "name": "",
          "type": "bool"
        }
      ],
      "stateMutability": "pure",
      "type": "function"
    },
    {
      "inputs": [
        {
          "internalType": "address[14]",
          "name": "addrs",
          "type": "address[14]"
        },
        {
          "internalType": "uint256[18]",
          "name": "uints",
          "type": "uint256[18]"
        },
        {
          "internalType": "uint8[8]",
          "name": "feeMethodsSidesKindsHowToCalls",
          "type": "uint8[8]"
        },
        {
          "internalType": "bytes",
          "name": "calldataBuy",
          "type": "bytes"
        },
        {
          "internalType": "bytes",
          "name": "calldataSell",
          "type": "bytes"
        },
        {
          "internalType": "bytes",
          "name": "replacementPatternBuy",
          "type": "bytes"
        },
        {
          "internalType": "bytes",
          "name": "replacementPatternSell",
          "type": "bytes"
        },
        {
          "internalType": "bytes",
          "name": "staticExtradataBuy",
          "type": "bytes"
        },
        {
          "internalType": "bytes",
          "name": "staticExtradataSell",
          "type": "bytes"
        }
      ],
      "name": "ordersCanMatch_",
      "outputs": [
        {
          "internalType": "bool",
          "name": "",
          "type": "bool"
        }
      ],
      "stateMutability": "view",
      "type": "function"
    },
    {
      "inputs": [],
      "name": "owner",
      "outputs": [
        {
          "internalType": "address",
          "name": "",
          "type": "address"
        }
      ],
      "stateMutability": "view",
      "type": "function"
    },
    {
      "inputs": [],
      "name": "protocolFeeRecipient",
      "outputs": [
        {
          "internalType": "address",
          "name": "",
          "type": "address"
        }
      ],
      "stateMutability": "view",
      "type": "function"
    },
    {
      "inputs": [],
      "name": "registry",
      "outputs": [
        {
          "internalType": "contract ProxyRegistry",
          "name": "",
          "type": "address"
        }
      ],
      "stateMutability": "view",
      "type": "function"
    },
    {
      "inputs": [],
      "name": "renounceOwnership",
      "outputs": [],
      "stateMutability": "nonpayable",
      "type": "function"
    },
    {
      "inputs": [
        {
          "internalType": "address",
          "name": "target",
          "type": "address"
        },
        {
          "internalType": "bytes",
          "name": "callData",
          "type": "bytes"
        },
        {
          "internalType": "bytes",
          "name": "extradata",
          "type": "bytes"
        }
      ],
      "name": "staticCall",
      "outputs": [
        {
          "internalType": "bool",
          "name": "result",
          "type": "bool"
        }
      ],
      "stateMutability": "view",
      "type": "function"
    },
    {
      "inputs": [],
      "name": "tokenTransferProxy",
      "outputs": [
        {
          "internalType": "contract TokenTransferProxy",
          "name": "",
          "type": "address"
        }
      ],
      "stateMutability": "view",
      "type": "function"
    },
    {
      "inputs": [
        {
          "internalType": "address",
          "name": "newOwner",
          "type": "address"
        }
      ],
      "name": "transferOwnership",
      "outputs": [],
      "stateMutability": "nonpayable",
      "type": "function"
    },
    {
      "inputs": [
        {
          "internalType": "address[7]",
          "name": "addrs",
          "type": "address[7]"
        },
        {
          "internalType": "uint256[9]",
          "name": "uints",
          "type": "uint256[9]"
        },
        {
          "internalType": "enum Market.FeeMethod",
          "name": "feeMethod",
          "type": "uint8"
        },
        {
          "internalType": "enum Market.Side",
          "name": "side",
          "type": "uint8"
        },
        {
          "internalType": "enum Market.SaleKind",
          "name": "saleKind",
          "type": "uint8"
        },
        {
          "internalType": "enum Market.HowToCall",
          "name": "howToCall",
          "type": "uint8"
        },
        {
          "internalType": "bytes",
          "name": "callData",
          "type": "bytes"
        },
        {
          "internalType": "bytes",
          "name": "replacementPattern",
          "type": "bytes"
        },
        {
          "internalType": "bytes",
          "name": "staticExtradata",
          "type": "bytes"
        }
      ],
      "name": "validateOrderParameters_",
      "outputs": [
        {
          "internalType": "bool",
          "name": "",
          "type": "bool"
        }
      ],
      "stateMutability": "view",
      "type": "function"
    },
    {
      "inputs": [
        {
          "internalType": "address[7]",
          "name": "addrs",
          "type": "address[7]"
        },
        {
          "internalType": "uint256[9]",
          "name": "uints",
          "type": "uint256[9]"
        },
        {
          "internalType": "enum Market.FeeMethod",
          "name": "feeMethod",
          "type": "uint8"
        },
        {
          "internalType": "enum Market.Side",
          "name": "side",
          "type": "uint8"
        },
        {
          "internalType": "enum Market.SaleKind",
          "name": "saleKind",
          "type": "uint8"
        },
        {
          "internalType": "enum Market.HowToCall",
          "name": "howToCall",
          "type": "uint8"
        },
        {
          "internalType": "bytes",
          "name": "callData",
          "type": "bytes"
        },
        {
          "internalType": "bytes",
          "name": "replacementPattern",
          "type": "bytes"
        },
        {
          "internalType": "bytes",
          "name": "staticExtradata",
          "type": "bytes"
        },
        {
          "internalType": "uint8",
          "name": "v",
          "type": "uint8"
        },
        {
          "internalType": "bytes32[2]",
          "name": "rs",
          "type": "bytes32[2]"
        }
      ],
      "name": "validateOrder_",
      "outputs": [
        {
          "internalType": "bool",
          "name": "",
          "type": "bool"
        }
      ],
      "stateMutability": "view",
      "type": "function"
    },
    {
      "inputs": [],
      "name": "version",
      "outputs": [
        {
          "internalType": "string",
          "name": "",
          "type": "string"
        }
      ],
      "stateMutability": "view",
      "type": "function"
    }
  ],
  "transactionHash": "0xbc74214c865ce4d1f0eb58cf54dd816dc35873fbbda5b9367df9047081a47a71",
  "args": [
    "0x813DA6111B2DC64B2ae4D65Dee0202661906f8e1",
    "0x76d616Ec86447e911B3Dbc9dEE0BAA19E881c354",
    "0x996AfE323CD425f3ABa1D1C1c72dDfed7840275D",
    "0x00B91B2F8aFE87FCDc2b3fFA9ee2278cd1E4DDf8",
    4
  ],
  "solcInputHash": "e484ac0a534fbb053970176b1edb35f0",
  "bytecode": "0x6080604052600060085560006009553480156200001b57600080fd5b506040516200625d3803806200625d8339810160408190526200003e91620001ea565b600160005562000057620000516200011c565b62000120565b600480546001600160a01b038088166001600160a01b0319928316179092556005805487841690831617905560038054868416908316178155600a8054938616939092169290921790556040805160c081018252601260808201908152714e46545370616365582045786368616e676560701b60a0830152815281518083018352928352620312e360ec1b60208481019190915281019290925263ffffffff8316908201523060608201526200010d9062000172565b60025550620002b59350505050565b3390565b600180546001600160a01b038381166001600160a01b0319831681179093556040519116919082907f8be0079c531659141344cd1fd0a4f28419497f9722a3daafe3b4186f6b6457e090600090a35050565b60007f8b73c3c69bb8fe3d512ecc4cf759cc79239f7b179b0ffacaa9a75d522b39400f82600001518051906020012083602001518051906020012084604001518560600151604051602001620001cd95949392919062000270565b604051602081830303815290604052805190602001209050919050565b600080600080600060a0868803121562000202578081fd5b85516200020f816200029c565b602087015190955062000222816200029c565b604087015190945062000235816200029c565b606087015190935062000248816200029c565b608087015190925063ffffffff8116811462000262578182fd5b809150509295509295909350565b9485526020850193909352604084019190915260608301526001600160a01b0316608082015260a00190565b6001600160a01b0381168114620002b257600080fd5b50565b615f9880620002c56000396000f3fe6080604052600436106101b75760003560e01c806379666868116100ec578063a25eb5d91161008a578063cae6047f11610064578063cae6047f14610475578063d537e1311461048a578063e57d4adb146104aa578063f2fde38b146104ca576101b7565b8063a25eb5d91461042d578063ab834bab14610442578063ca595b9a14610455576101b7565b80637d766981116100c65780637d766981146103b85780638076f005146103d85780638911ebea146103f85780638da5cb5b14610418576101b7565b8063796668681461036e5780637b1039991461038e5780637ccefc52146103a3576101b7565b80633f67ee0d1161015957806363d36c0b1161013357806363d36c0b1461030457806364df049e14610324578063715018a61461033957806372593b4c1461034e576101b7565b80633f67ee0d146102af57806354fd4d50146102cf578063562b2ebc146102e4576101b7565b8063239e83df11610195578063239e83df1461023657806328a8ee681461025657806329a03acf146102785780633644e5151461029a576101b7565b806306fdde03146101bc5780630eefdbad146101e757806310796a4714610209575b600080fd5b3480156101c857600080fd5b506101d16104ea565b6040516101de9190615cb5565b60405180910390f35b3480156101f357600080fd5b506101fc610518565b6040516101de9190615b80565b34801561021557600080fd5b50610229610224366004615382565b610527565b6040516101de9190615c6d565b34801561024257600080fd5b506101d16102513660046159d0565b6105bf565b34801561026257600080fd5b5061026b6105d4565b6040516101de9190615c78565b34801561028457600080fd5b50610298610293366004615870565b6105da565b005b3480156102a657600080fd5b5061026b6109ce565b3480156102bb57600080fd5b5061026b6102ca36600461567d565b6109d4565b3480156102db57600080fd5b506101d1610d63565b3480156102f057600080fd5b506102296102ff366004615a1b565b610d82565b34801561031057600080fd5b5061026b61031f366004615ac2565b610dbc565b34801561033057600080fd5b506101fc610dd9565b34801561034557600080fd5b50610298610de8565b34801561035a57600080fd5b506102296103693660046153f4565b610e3c565b34801561037a57600080fd5b50610298610389366004615773565b611641565b34801561039a57600080fd5b506101fc6119d2565b3480156103af57600080fd5b5061026b6119e1565b3480156103c457600080fd5b5061026b6103d336600461567d565b6119e7565b3480156103e457600080fd5b506102296103f33660046159b8565b611d67565b34801561040457600080fd5b50610229610413366004615870565b611d7c565b34801561042457600080fd5b506101fc6121a5565b34801561043957600080fd5b506101fc6121b4565b61029861045036600461551f565b6121c3565b34801561046157600080fd5b5061022961047036600461567d565b612a94565b34801561048157600080fd5b5061026b612e18565b34801561049657600080fd5b5061026b6104a53660046153f4565b612e1e565b3480156104b657600080fd5b506102296104c53660046159b8565b613613565b3480156104d657600080fd5b506102986104e536600461534a565b613628565b604051806040016040528060128152602001714e46545370616365582045786368616e676560701b81525081565b6005546001600160a01b031681565b600080825184516105389190615e5f565b6001600160401b0381111561055d57634e487b7160e01b600052604160045260246000fd5b6040519080825280601f01601f191660200182016040528015610587576020820181803683370190505b509050602081016105988185613699565b90506105a48186613699565b506000604051835160208501895afa925050505b9392505050565b60606105cc8484846136dc565b509192915050565b60095481565b6109c0604051806102e001604052808e60006007811061060a57634e487b7160e01b600052603260045260246000fd5b60200201516001600160a01b031681526020018e60016007811061063e57634e487b7160e01b600052603260045260246000fd5b60200201516001600160a01b031681526020018e60026007811061067257634e487b7160e01b600052603260045260246000fd5b60200201516001600160a01b031681526020018d6000600981106106a657634e487b7160e01b600052603260045260246000fd5b602002015181526020018d6001600981106106d157634e487b7160e01b600052603260045260246000fd5b602002015181526020018d6002600981106106fc57634e487b7160e01b600052603260045260246000fd5b602002015181526020018d60036009811061072757634e487b7160e01b600052603260045260246000fd5b602002015181526020018e60036007811061075257634e487b7160e01b600052603260045260246000fd5b60200201516001600160a01b031681526020018c600181111561078557634e487b7160e01b600052602160045260246000fd5b81526020018b60018111156107aa57634e487b7160e01b600052602160045260246000fd5b81526020018a60018111156107cf57634e487b7160e01b600052602160045260246000fd5b815260808f01516001600160a01b0316602082015260400189600181111561080757634e487b7160e01b600052602160045260246000fd5b815260200188888080601f0160208091040260200160405190810160405280939291908181526020018383808284376000920191909152505050908252506020810187905260a08f01516001600160a01b03166040820152606081018690526080018e600660200201516001600160a01b031681526020018d6004600981106108a057634e487b7160e01b600052603260045260246000fd5b602002015181526020018d6005600981106108cb57634e487b7160e01b600052603260045260246000fd5b602002015181526020018d6006600981106108f657634e487b7160e01b600052603260045260246000fd5b602002015181526020018d60076009811061092157634e487b7160e01b600052603260045260246000fd5b602002015181526020018d60086009811061094c57634e487b7160e01b600052603260045260246000fd5b602002015181525060405180606001604052808560ff1681526020018460006002811061098957634e487b7160e01b600052603260045260246000fd5b60200201518152602001846001600281106109b457634e487b7160e01b600052603260045260246000fd5b602002015190526138bc565b505050505050505050505050565b60025481565b6000610d54604051806102e001604052808d600060078110610a0657634e487b7160e01b600052603260045260246000fd5b60200201516001600160a01b031681526020018d600160078110610a3a57634e487b7160e01b600052603260045260246000fd5b60200201516001600160a01b031681526020018d600260078110610a6e57634e487b7160e01b600052603260045260246000fd5b60200201516001600160a01b031681526020018c600060098110610aa257634e487b7160e01b600052603260045260246000fd5b602002015181526020018c600160098110610acd57634e487b7160e01b600052603260045260246000fd5b602002015181526020018c600260098110610af857634e487b7160e01b600052603260045260246000fd5b602002015181526020018c600360098110610b2357634e487b7160e01b600052603260045260246000fd5b602002015181526020018d600360078110610b4e57634e487b7160e01b600052603260045260246000fd5b60200201516001600160a01b031681526020018b6001811115610b8157634e487b7160e01b600052602160045260246000fd5b81526020018a6001811115610ba657634e487b7160e01b600052602160045260246000fd5b8152602001896001811115610bcb57634e487b7160e01b600052602160045260246000fd5b815260808e01516001600160a01b03166020820152604001886001811115610c0357634e487b7160e01b600052602160045260246000fd5b815260200187878080601f0160208091040260200160405190810160405280939291908181526020018383808284376000920191909152505050908252506020810186905260a08e01516001600160a01b03166040820152606081018590526080018d600660200201516001600160a01b031681526020018c600460098110610c9c57634e487b7160e01b600052603260045260246000fd5b602002015181526020018c600560098110610cc757634e487b7160e01b600052603260045260246000fd5b602002015181526020018c600660098110610cf257634e487b7160e01b600052603260045260246000fd5b602002015181526020018c600760098110610d1d57634e487b7160e01b600052603260045260246000fd5b602002015181526020018c600860098110610d4857634e487b7160e01b600052603260045260246000fd5b60200201519052613938565b9b9a5050505050505050505050565b604051806040016040528060038152602001620312e360ec1b81525081565b825160009015610d9757610d978584866136dc565b815115610da957610da98386846136dc565b610db3858461396e565b95945050505050565b6000610dcc8787878787876139d2565b90505b9695505050505050565b600a546001600160a01b031681565b610df0613a97565b6001600160a01b0316610e016121a5565b6001600160a01b031614610e305760405162461bcd60e51b8152600401610e2790615daa565b60405180910390fd5b610e3a6000613a9b565b565b600080604051806102e001604052808c6000600e8110610e6c57634e487b7160e01b600052603260045260246000fd5b60200201516001600160a01b031681526020018c6001600e8110610ea057634e487b7160e01b600052603260045260246000fd5b60200201516001600160a01b031681526020018c6002600e8110610ed457634e487b7160e01b600052603260045260246000fd5b60200201516001600160a01b031681526020018b600060128110610f0857634e487b7160e01b600052603260045260246000fd5b602002015181526020018b600160128110610f3357634e487b7160e01b600052603260045260246000fd5b602002015181526020018b600260128110610f5e57634e487b7160e01b600052603260045260246000fd5b602002015181526020018b600360128110610f8957634e487b7160e01b600052603260045260246000fd5b602002015181526020018c6003600e8110610fb457634e487b7160e01b600052603260045260246000fd5b60200201516001600160a01b031681526020018a600060088110610fe857634e487b7160e01b600052603260045260246000fd5b602002015160ff16600181111561100f57634e487b7160e01b600052602160045260246000fd5b600181111561102e57634e487b7160e01b600052602160045260246000fd5b81526020018a6001602002015160ff16600181111561105d57634e487b7160e01b600052602160045260246000fd5b600181111561107c57634e487b7160e01b600052602160045260246000fd5b81526020018a6002602002015160ff1660018111156110ab57634e487b7160e01b600052602160045260246000fd5b60018111156110ca57634e487b7160e01b600052602160045260246000fd5b815260808d01516001600160a01b031660208201526040018a6003602002015160ff16600181111561110c57634e487b7160e01b600052602160045260246000fd5b600181111561112b57634e487b7160e01b600052602160045260246000fd5b8152602081018a90526040810188905260a0808e01516001600160a01b0316606083015260808201879052018c600660200201516001600160a01b031681526020018b60046012811061118e57634e487b7160e01b600052603260045260246000fd5b602002015181526020018b6005601281106111b957634e487b7160e01b600052603260045260246000fd5b602002015181526020018b6006601281106111e457634e487b7160e01b600052603260045260246000fd5b602002015181526020018b60076012811061120f57634e487b7160e01b600052603260045260246000fd5b602002015181526020018b60086012811061123a57634e487b7160e01b600052603260045260246000fd5b602002015181525090506000604051806102e001604052808d6007600e811061127357634e487b7160e01b600052603260045260246000fd5b60200201516001600160a01b031681526020018d6008600e81106112a757634e487b7160e01b600052603260045260246000fd5b60200201516001600160a01b031681526020018d6009600e81106112db57634e487b7160e01b600052603260045260246000fd5b60200201516001600160a01b031681526020018c60096012811061130f57634e487b7160e01b600052603260045260246000fd5b602002015181526020018c600a6012811061133a57634e487b7160e01b600052603260045260246000fd5b602002015181526020018c600b6012811061136557634e487b7160e01b600052603260045260246000fd5b602002015181526020018c600c6012811061139057634e487b7160e01b600052603260045260246000fd5b602002015181526020018d600a600e81106113bb57634e487b7160e01b600052603260045260246000fd5b60200201516001600160a01b031681526020018b6004600881106113ef57634e487b7160e01b600052603260045260246000fd5b602002015160ff16600181111561141657634e487b7160e01b600052602160045260246000fd5b600181111561143557634e487b7160e01b600052602160045260246000fd5b81526020018b6005602002015160ff16600181111561146457634e487b7160e01b600052602160045260246000fd5b600181111561148357634e487b7160e01b600052602160045260246000fd5b81526020018b6006602002015160ff1660018111156114b257634e487b7160e01b600052602160045260246000fd5b60018111156114d157634e487b7160e01b600052602160045260246000fd5b81526101608e01516001600160a01b031660208201526040018b6007602002015160ff16600181111561151457634e487b7160e01b600052602160045260246000fd5b600181111561153357634e487b7160e01b600052602160045260246000fd5b8152602081018a9052604081018890526101808e01516001600160a01b039081166060830152608082018790526101a08f01511660a082015260c0018c600d602002015181526020018c600e6012811061159d57634e487b7160e01b600052603260045260246000fd5b602002015181526020018c600f601281106115c857634e487b7160e01b600052603260045260246000fd5b602002015181526020018c6010601281106115f357634e487b7160e01b600052603260045260246000fd5b602002015181526020018c60116012811061161e57634e487b7160e01b600052603260045260246000fd5b6020020151905290506116318282613aed565b9c9b505050505050505050505050565b6000604051806102e001604052808d60006007811061167057634e487b7160e01b600052603260045260246000fd5b60200201516001600160a01b031681526020018d6001600781106116a457634e487b7160e01b600052603260045260246000fd5b60200201516001600160a01b031681526020018d6002600781106116d857634e487b7160e01b600052603260045260246000fd5b60200201516001600160a01b031681526020018c60006009811061170c57634e487b7160e01b600052603260045260246000fd5b602002015181526020018c60016009811061173757634e487b7160e01b600052603260045260246000fd5b602002015181526020018c60026009811061176257634e487b7160e01b600052603260045260246000fd5b602002015181526020018c60036009811061178d57634e487b7160e01b600052603260045260246000fd5b602002015181526020018d6003600781106117b857634e487b7160e01b600052603260045260246000fd5b60200201516001600160a01b031681526020018b60018111156117eb57634e487b7160e01b600052602160045260246000fd5b81526020018a600181111561181057634e487b7160e01b600052602160045260246000fd5b815260200189600181111561183557634e487b7160e01b600052602160045260246000fd5b815260808e01516001600160a01b0316602082015260400188600181111561186d57634e487b7160e01b600052602160045260246000fd5b815260200187878080601f0160208091040260200160405190810160405280939291908181526020018383808284376000920191909152505050908252506020810186905260a08e01516001600160a01b03166040820152606081018590526080018d600660200201516001600160a01b031681526020018c60046009811061190657634e487b7160e01b600052603260045260246000fd5b602002015181526020018c60056009811061193157634e487b7160e01b600052603260045260246000fd5b602002015181526020018c60066009811061195c57634e487b7160e01b600052603260045260246000fd5b602002015181526020018c60076009811061198757634e487b7160e01b600052603260045260246000fd5b602002015181526020018c6008600981106119b257634e487b7160e01b600052603260045260246000fd5b6020020151905290506109c08183613d3f565b5050505050505050505050565b6004546001600160a01b031681565b60085481565b6000610d54604051806102e001604052808d600060078110611a1957634e487b7160e01b600052603260045260246000fd5b60200201516001600160a01b031681526020018d600160078110611a4d57634e487b7160e01b600052603260045260246000fd5b60200201516001600160a01b031681526020018d600260078110611a8157634e487b7160e01b600052603260045260246000fd5b60200201516001600160a01b031681526020018c600060098110611ab557634e487b7160e01b600052603260045260246000fd5b602002015181526020018c600160098110611ae057634e487b7160e01b600052603260045260246000fd5b602002015181526020018c600260098110611b0b57634e487b7160e01b600052603260045260246000fd5b602002015181526020018c600360098110611b3657634e487b7160e01b600052603260045260246000fd5b602002015181526020018d600360078110611b6157634e487b7160e01b600052603260045260246000fd5b60200201516001600160a01b031681526020018b6001811115611b9457634e487b7160e01b600052602160045260246000fd5b81526020018a6001811115611bb957634e487b7160e01b600052602160045260246000fd5b8152602001896001811115611bde57634e487b7160e01b600052602160045260246000fd5b815260808e01516001600160a01b03166020820152604001886001811115611c1657634e487b7160e01b600052602160045260246000fd5b815260200187878080601f0160208091040260200160405190810160405280939291908181526020018383808284376000920191909152505050908252506020810186905260a08e01516001600160a01b03166040820152606081018590526080018d600660200201516001600160a01b031681526020018c600460098110611caf57634e487b7160e01b600052603260045260246000fd5b602002015181526020018c600560098110611cda57634e487b7160e01b600052603260045260246000fd5b602002015181526020018c600660098110611d0557634e487b7160e01b600052603260045260246000fd5b602002015181526020018c600760098110611d3057634e487b7160e01b600052603260045260246000fd5b602002015181526020018c600860098110611d5b57634e487b7160e01b600052603260045260246000fd5b60200201519052613eda565b60066020526000908152604090205460ff1681565b600080604051806102e001604052808f600060078110611dac57634e487b7160e01b600052603260045260246000fd5b60200201516001600160a01b031681526020018f600160078110611de057634e487b7160e01b600052603260045260246000fd5b60200201516001600160a01b031681526020018f600260078110611e1457634e487b7160e01b600052603260045260246000fd5b60200201516001600160a01b031681526020018e600060098110611e4857634e487b7160e01b600052603260045260246000fd5b602002015181526020018e600160098110611e7357634e487b7160e01b600052603260045260246000fd5b602002015181526020018e600260098110611e9e57634e487b7160e01b600052603260045260246000fd5b602002015181526020018e600360098110611ec957634e487b7160e01b600052603260045260246000fd5b602002015181526020018f600360078110611ef457634e487b7160e01b600052603260045260246000fd5b60200201516001600160a01b031681526020018d6001811115611f2757634e487b7160e01b600052602160045260246000fd5b81526020018c6001811115611f4c57634e487b7160e01b600052602160045260246000fd5b81526020018b6001811115611f7157634e487b7160e01b600052602160045260246000fd5b81526020018f600460200201516001600160a01b031681526020018a6001811115611fac57634e487b7160e01b600052602160045260246000fd5b815260200189898080601f016020809104026020016040519081016040528093929190818152602001838380828437600092019190915250505090825250602081018890526040018f600560200201516001600160a01b031681526020018681526020018f60066007811061203157634e487b7160e01b600052603260045260246000fd5b60200201516001600160a01b031681526020018e60046009811061206557634e487b7160e01b600052603260045260246000fd5b602002015181526020018e60056009811061209057634e487b7160e01b600052603260045260246000fd5b602002015181526020018e6006600981106120bb57634e487b7160e01b600052603260045260246000fd5b602002015181526020018e6007600981106120e657634e487b7160e01b600052603260045260246000fd5b602002015181526020018e60086009811061211157634e487b7160e01b600052603260045260246000fd5b60200201519052905061219361212682613eda565b8260405180606001604052808860ff1681526020018760006002811061215c57634e487b7160e01b600052603260045260246000fd5b602002015181526020018760016002811061218757634e487b7160e01b600052603260045260246000fd5b60200201519052613ef0565b9e9d5050505050505050505050505050565b6001546001600160a01b031690565b6003546001600160a01b031681565b6119c5604051806102e001604052808d6000600e81106121f357634e487b7160e01b600052603260045260246000fd5b60200201516001600160a01b031681526020018d6001600e811061222757634e487b7160e01b600052603260045260246000fd5b60200201516001600160a01b031681526020018d6002600e811061225b57634e487b7160e01b600052603260045260246000fd5b60200201516001600160a01b031681526020018c60006012811061228f57634e487b7160e01b600052603260045260246000fd5b602002015181526020018c6001601281106122ba57634e487b7160e01b600052603260045260246000fd5b602002015181526020018c6002601281106122e557634e487b7160e01b600052603260045260246000fd5b602002015181526020018c60036012811061231057634e487b7160e01b600052603260045260246000fd5b602002015181526020018d6003600e811061233b57634e487b7160e01b600052603260045260246000fd5b60200201516001600160a01b031681526020018b60006008811061236f57634e487b7160e01b600052603260045260246000fd5b602002015160ff16600181111561239657634e487b7160e01b600052602160045260246000fd5b60018111156123b557634e487b7160e01b600052602160045260246000fd5b81526020018b6001602002015160ff1660018111156123e457634e487b7160e01b600052602160045260246000fd5b600181111561240357634e487b7160e01b600052602160045260246000fd5b81526020018b6002602002015160ff16600181111561243257634e487b7160e01b600052602160045260246000fd5b600181111561245157634e487b7160e01b600052602160045260246000fd5b815260808e01516001600160a01b031660208201526040018b6003602002015160ff16600181111561249357634e487b7160e01b600052602160045260246000fd5b60018111156124b257634e487b7160e01b600052602160045260246000fd5b8152602081018b90526040810189905260a0808f01516001600160a01b0316606083015260808201889052018d600660200201516001600160a01b031681526020018c60046012811061251557634e487b7160e01b600052603260045260246000fd5b602002015181526020018c60056012811061254057634e487b7160e01b600052603260045260246000fd5b602002015181526020018c60066012811061256b57634e487b7160e01b600052603260045260246000fd5b602002015181526020018c60076012811061259657634e487b7160e01b600052603260045260246000fd5b602002015181526020018c6008601281106125c157634e487b7160e01b600052603260045260246000fd5b6020908102919091015190915260408051606081018252865160ff168152855192810192909252810184600160200201519052604080516102e08101909152808f600760200201516001600160a01b031681526020018f6008600e811061263857634e487b7160e01b600052603260045260246000fd5b60200201516001600160a01b031681526020018f6009600e811061266c57634e487b7160e01b600052603260045260246000fd5b60200201516001600160a01b031681526020018e6009601281106126a057634e487b7160e01b600052603260045260246000fd5b602002015181526020018e600a601281106126cb57634e487b7160e01b600052603260045260246000fd5b602002015181526020018e600b601281106126f657634e487b7160e01b600052603260045260246000fd5b602002015181526020018e600c6012811061272157634e487b7160e01b600052603260045260246000fd5b602002015181526020018f600a600e811061274c57634e487b7160e01b600052603260045260246000fd5b60200201516001600160a01b031681526020018d60046008811061278057634e487b7160e01b600052603260045260246000fd5b602002015160ff1660018111156127a757634e487b7160e01b600052602160045260246000fd5b60018111156127c657634e487b7160e01b600052602160045260246000fd5b81526020018d6005602002015160ff1660018111156127f557634e487b7160e01b600052602160045260246000fd5b600181111561281457634e487b7160e01b600052602160045260246000fd5b81526020018d6006602002015160ff16600181111561284357634e487b7160e01b600052602160045260246000fd5b600181111561286257634e487b7160e01b600052602160045260246000fd5b81526020018f600b60200201516001600160a01b031681526020018d60076008811061289e57634e487b7160e01b600052603260045260246000fd5b602002015160ff1660018111156128c557634e487b7160e01b600052602160045260246000fd5b60018111156128e457634e487b7160e01b600052602160045260246000fd5b8152602081018c9052604081018a90526060018f600c60200201516001600160a01b031681526020018781526020018f600d600e811061293457634e487b7160e01b600052603260045260246000fd5b60200201516001600160a01b031681526020018e600d6012811061296857634e487b7160e01b600052603260045260246000fd5b602002015181526020018e600e6012811061299357634e487b7160e01b600052603260045260246000fd5b602002015181526020018e600f601281106129be57634e487b7160e01b600052603260045260246000fd5b602002015181526020018e6010601281106129e957634e487b7160e01b600052603260045260246000fd5b602002015181526020018e601160128110612a1457634e487b7160e01b600052603260045260246000fd5b60200201519052604080516060810190915280876001602002015160ff16815260200186600260058110612a5857634e487b7160e01b600052603260045260246000fd5b6020020151815260200186600360058110612a8357634e487b7160e01b600052603260045260246000fd5b60200201519052608086015161400b565b600080604051806102e001604052808d600060078110612ac457634e487b7160e01b600052603260045260246000fd5b60200201516001600160a01b031681526020018d600160078110612af857634e487b7160e01b600052603260045260246000fd5b60200201516001600160a01b031681526020018d600260078110612b2c57634e487b7160e01b600052603260045260246000fd5b60200201516001600160a01b031681526020018c600060098110612b6057634e487b7160e01b600052603260045260246000fd5b602002015181526020018c600160098110612b8b57634e487b7160e01b600052603260045260246000fd5b602002015181526020018c600260098110612bb657634e487b7160e01b600052603260045260246000fd5b602002015181526020018c600360098110612be157634e487b7160e01b600052603260045260246000fd5b602002015181526020018d600360078110612c0c57634e487b7160e01b600052603260045260246000fd5b60200201516001600160a01b031681526020018b6001811115612c3f57634e487b7160e01b600052602160045260246000fd5b81526020018a6001811115612c6457634e487b7160e01b600052602160045260246000fd5b8152602001896001811115612c8957634e487b7160e01b600052602160045260246000fd5b815260808e01516001600160a01b03166020820152604001886001811115612cc157634e487b7160e01b600052602160045260246000fd5b815260200187878080601f0160208091040260200160405190810160405280939291908181526020018383808284376000920191909152505050908252506020810186905260a08e01516001600160a01b03166040820152606081018590526080018d600660200201516001600160a01b031681526020018c600460098110612d5a57634e487b7160e01b600052603260045260246000fd5b602002015181526020018c600560098110612d8557634e487b7160e01b600052603260045260246000fd5b602002015181526020018c600660098110612db057634e487b7160e01b600052603260045260246000fd5b602002015181526020018c600760098110612ddb57634e487b7160e01b600052603260045260246000fd5b602002015181526020018c600860098110612e0657634e487b7160e01b600052603260045260246000fd5b60200201519052905061163181614530565b61271081565b600080604051806102e001604052808c6000600e8110612e4e57634e487b7160e01b600052603260045260246000fd5b60200201516001600160a01b031681526020018c6001600e8110612e8257634e487b7160e01b600052603260045260246000fd5b60200201516001600160a01b031681526020018c6002600e8110612eb657634e487b7160e01b600052603260045260246000fd5b60200201516001600160a01b031681526020018b600060128110612eea57634e487b7160e01b600052603260045260246000fd5b602002015181526020018b600160128110612f1557634e487b7160e01b600052603260045260246000fd5b602002015181526020018b600260128110612f4057634e487b7160e01b600052603260045260246000fd5b602002015181526020018b600360128110612f6b57634e487b7160e01b600052603260045260246000fd5b602002015181526020018c6003600e8110612f9657634e487b7160e01b600052603260045260246000fd5b60200201516001600160a01b031681526020018a600060088110612fca57634e487b7160e01b600052603260045260246000fd5b602002015160ff166001811115612ff157634e487b7160e01b600052602160045260246000fd5b600181111561301057634e487b7160e01b600052602160045260246000fd5b81526020018a6001602002015160ff16600181111561303f57634e487b7160e01b600052602160045260246000fd5b600181111561305e57634e487b7160e01b600052602160045260246000fd5b81526020018a6002602002015160ff16600181111561308d57634e487b7160e01b600052602160045260246000fd5b60018111156130ac57634e487b7160e01b600052602160045260246000fd5b815260808d01516001600160a01b031660208201526040018a6003602002015160ff1660018111156130ee57634e487b7160e01b600052602160045260246000fd5b600181111561310d57634e487b7160e01b600052602160045260246000fd5b8152602081018a90526040810188905260a0808e01516001600160a01b0316606083015260808201879052018c600660200201516001600160a01b031681526020018b60046012811061317057634e487b7160e01b600052603260045260246000fd5b602002015181526020018b60056012811061319b57634e487b7160e01b600052603260045260246000fd5b602002015181526020018b6006601281106131c657634e487b7160e01b600052603260045260246000fd5b602002015181526020018b6007601281106131f157634e487b7160e01b600052603260045260246000fd5b602002015181526020018b60086012811061321c57634e487b7160e01b600052603260045260246000fd5b602002015181525090506000604051806102e001604052808d6007600e811061325557634e487b7160e01b600052603260045260246000fd5b60200201516001600160a01b031681526020018d6008600e811061328957634e487b7160e01b600052603260045260246000fd5b60200201516001600160a01b031681526020018d6009600e81106132bd57634e487b7160e01b600052603260045260246000fd5b60200201516001600160a01b031681526020018c6009601281106132f157634e487b7160e01b600052603260045260246000fd5b602002015181526020018c600a6012811061331c57634e487b7160e01b600052603260045260246000fd5b602002015181526020018c600b6012811061334757634e487b7160e01b600052603260045260246000fd5b602002015181526020018c600c6012811061337257634e487b7160e01b600052603260045260246000fd5b602002015181526020018d600a600e811061339d57634e487b7160e01b600052603260045260246000fd5b60200201516001600160a01b031681526020018b6004600881106133d157634e487b7160e01b600052603260045260246000fd5b602002015160ff1660018111156133f857634e487b7160e01b600052602160045260246000fd5b600181111561341757634e487b7160e01b600052602160045260246000fd5b81526020018b6005602002015160ff16600181111561344657634e487b7160e01b600052602160045260246000fd5b600181111561346557634e487b7160e01b600052602160045260246000fd5b81526020018b6006602002015160ff16600181111561349457634e487b7160e01b600052602160045260246000fd5b60018111156134b357634e487b7160e01b600052602160045260246000fd5b81526101608e01516001600160a01b031660208201526040018b6007602002015160ff1660018111156134f657634e487b7160e01b600052602160045260246000fd5b600181111561351557634e487b7160e01b600052602160045260246000fd5b8152602081018a9052604081018890526101808e01516001600160a01b039081166060830152608082018790526101a08f01511660a082015260c0018c600d602002015181526020018c600e6012811061357f57634e487b7160e01b600052603260045260246000fd5b602002015181526020018c600f601281106135aa57634e487b7160e01b600052603260045260246000fd5b602002015181526020018c6010601281106135d557634e487b7160e01b600052603260045260246000fd5b602002015181526020018c60116012811061360057634e487b7160e01b600052603260045260246000fd5b60200201519052905061163182826145c9565b60076020526000908152604090205460ff1681565b613630613a97565b6001600160a01b03166136416121a5565b6001600160a01b0316146136675760405162461bcd60e51b8152600401610e2790615daa565b6001600160a01b03811661368d5760405162461bcd60e51b8152600401610e2790615d64565b61369681613a9b565b50565b8051600090156136d557815180602001830160208401855b600183831014156136cc5781518152602091820191016136b1565b50505092909201915b5090919050565b81518351146136ea57600080fd5b80518351146136f857600080fd5b6000602084516137089190615e77565b90506000613717826020615e97565b905081613725602083615e77565b1461374057634e487b7160e01b600052600160045260246000fd5b60005b8281101561377d5780600101602002808501518187015181168289015182191617828901525050808061377590615ecd565b915050613743565b82156137aa57829050806001016020028085015181870151811682890151821916178289015250506138b4565b50805b85518110156138b4578481815181106137d657634e487b7160e01b600052603260045260246000fd5b602001015160f81c60f81b84828151811061380157634e487b7160e01b600052603260045260246000fd5b602001015160f81c60f81b1686828151811061382d57634e487b7160e01b600052603260045260246000fd5b602001015160f81c60f81b85838151811061385857634e487b7160e01b600052603260045260246000fd5b602001015160f81c60f81b60ff60f81b18161786828151811061388b57634e487b7160e01b600052603260045260246000fd5b60200101906001600160f81b031916908160001a905350806138ac81615ecd565b9150506137ad565b505050505050565b60006138c88383614657565b905082602001516001600160a01b03166138e0613a97565b6001600160a01b0316146138f357600080fd5b600081815260066020526040808220805460ff191660011790555182917f5152abf959f6564662358c2e52b702259b78bac5ee7842a0f01937e670efcc7d91a2505050565b6000613966826101200151836101400151846102400151856102600151866102800151876102a001516139d2565b90505b919050565b81518151600091600191811480831461398a57600092506139c8565b600160208701838101602088015b6002848385100114156139c35780518351146139b75760009650600093505b60209283019201613998565b505050505b5090949350505050565b6000808660018111156139f557634e487b7160e01b600052602160045260246000fd5b1415613a02575083610dcf565b6001866001811115613a2457634e487b7160e01b600052602160045260246000fd5b1415610dcf576000613a51613a4286613a3d4288614679565b614685565b613a4c8587614679565b614691565b90506001886001811115613a7557634e487b7160e01b600052602160045260246000fd5b1415613a8d57613a858682614679565b915050610dcf565b613a85868261469d565b3390565b600180546001600160a01b038381166001600160a01b0319831681179093556040519116919082907f8be0079c531659141344cd1fd0a4f28419497f9722a3daafe3b4186f6b6457e090600090a35050565b6000808361012001516001811115613b1557634e487b7160e01b600052602160045260246000fd5b148015613b46575060018261012001516001811115613b4457634e487b7160e01b600052602160045260246000fd5b145b8015613b9957508161010001516001811115613b7257634e487b7160e01b600052602160045260246000fd5b8361010001516001811115613b9757634e487b7160e01b600052602160045260246000fd5b145b8015613bc057508161022001516001600160a01b03168361022001516001600160a01b0316145b8015613bfa575060408201516001600160a01b03161580613bfa575082602001516001600160a01b031682604001516001600160a01b0316145b8015613c34575060408301516001600160a01b03161580613c34575081602001516001600160a01b031683604001516001600160a01b0316145b8015613c8f575060e08201516001600160a01b0316158015613c62575060e08301516001600160a01b031615155b80613c8f575060e08201516001600160a01b031615801590613c8f575060e08301516001600160a01b0316155b8015613cb657508161016001516001600160a01b03168361016001516001600160a01b0316145b8015613d0957508161018001516001811115613ce257634e487b7160e01b600052602160045260246000fd5b8361018001516001811115613d0757634e487b7160e01b600052602160045260246000fd5b145b8015613d245750613d24836102800151846102a001516146a9565b80156105b857506105b8826102800151836102a001516146a9565b81602001516001600160a01b0316613d55613a97565b6001600160a01b031614613d6857600080fd5b6000613d7383613eda565b60008181526007602052604090205490915060ff1615613d9257600080fd5b60016007600083815260200190815260200160002060006101000a81548160ff0219169083151502179055508260e001516001600160a01b031683602001516001600160a01b0316827f90c7f9f5b58c15f0f635bfb99f55d3d78fdbef3559e7d8abf5c81052a527662286600001518760400151886060015189608001518a60a001518b60c001518c61010001518d61012001518e61014001518f6101600151604051613e489a99989796959493929190615bbe565b60405180910390a4807fe55393c778364e440d958b39ac1debd99dcfae3775a8a04d1e79124adf6a2d08846101800151856101a00151866101c00151876101e001518861020001518961022001518a61024001518b61026001518c61028001518d6102a001518e6102c001518e604051613ecd9c9b9a99989796959493929190615cc8565b60405180910390a2505050565b6000613966600254613eeb846146c5565b614928565b6000613efb83614530565b613f07575060006105b8565b60008481526006602052604090205460ff1615613f26575060006105b8565b60008481526007602052604090205460ff1615613f45575060016105b8565b6020808401518351918401516040808601519051630c2bf17b60e41b81526001600160a01b0390931693734Bf17d93b63fE6AB1a0FbA4b1ff1Ef9b17F1f2CE9363c2bf17b093613f9a938b9392600401615c97565b60206040518083038186803b158015613fb257600080fd5b505af4158015613fc6573d6000803e3d6000fd5b505050506040513d601f19601f82011682018060405250810190613fea9190615366565b6001600160a01b03161415614001575060016105b8565b5060009392505050565b6002600054141561402e5760405162461bcd60e51b8152600401610e2790615ddf565b6002600090815561403d613a97565b6001600160a01b031686602001516001600160a01b031614156140715761406386614530565b61406c57600080fd5b61407e565b61407b8686614657565b90505b6000614088613a97565b6001600160a01b031685602001516001600160a01b031614156140bc576140ae85614530565b6140b757600080fd5b6140c9565b6140c68585614657565b90505b6140d38786613aed565b6140dc57600080fd5b610160850151803b90816140ef57600080fd5b6101c0890151511561411557614115896101a00151886101a001518b6101c001516136dc565b6101c0870151511561413b5761413b876101a001518a6101a00151896101c001516136dc565b61414f896101a00151886101a0015161396e565b61415857600080fd5b60048054602089015160405163c455279160e01b81526000936001600160a01b039093169263c45527919261418f92909101615b80565b60206040518083038186803b1580156141a757600080fd5b505afa1580156141bb573d6000803e3d6000fd5b505050506040513d601f19601f820116820180604052508101906141df9190615366565b90506001600160a01b0381166141f457600080fd5b6004805460408051634b9026c760e11b815290516001600160a01b03909216926397204d8e928282019260209290829003018186803b15801561423657600080fd5b505afa15801561424a573d6000803e3d6000fd5b505050506040513d601f19601f8201168201806040525081019061426e9190615366565b6001600160a01b0316816001600160a01b0316635c60da1b6040518163ffffffff1660e01b815260040160206040518083038186803b1580156142b057600080fd5b505afa1580156142c4573d6000803e3d6000fd5b505050506040513d601f19601f820116820180604052508101906142e89190615366565b6001600160a01b0316146142fb57600080fd5b60208a015181906001600160a01b0316614313613a97565b6001600160a01b03161461433b576000868152600660205260409020805460ff191660011790555b88602001516001600160a01b0316614351613a97565b6001600160a01b031614614379576000858152600660205260409020805460ff191660011790555b60006143858c8b61495b565b9050816001600160a01b0316631b0f7ba98b61016001518c61018001518d6101a001516040518463ffffffff1660e01b81526004016143c693929190615c3c565b602060405180830381600087803b1580156143e057600080fd5b505af11580156143f4573d6000803e3d6000fd5b505050506040513d601f19601f82011682018060405250810190614418919061599c565b61442157600080fd5b6101e08c01516001600160a01b0316156144585761444f8c6101e001518b6101a001518e6102000151610527565b61445857600080fd5b6101e08a01516001600160a01b03161561448f576144868a6101e001518b6101a001518c6102000151610527565b61448f57600080fd5b60e08a015188906001600160a01b03166144ad578a602001516144b3565b8c602001515b60e08c01516001600160a01b0391821691166144d3578d602001516144d9565b8b602001515b6001600160a01b03167fc4109843e0b7d514e4c093114b863f8e7d8d9a458c372cd51bfe526b588006c98a8a8660405161451593929190615c81565b60405180910390a45050600160005550505050505050505050565b80516000906001600160a01b0316301461454c57506000613969565b614560826101400151836102a00151614f48565b61456c57506000613969565b6001826101000151600181111561459357634e487b7160e01b600052602160045260246000fd5b1480156145b457506008548260a0015110806145b457506009548260c00151105b156145c157506000613969565b506001919050565b6000806145f8836101200151846101400151856102400151866102600151876102800151886102a001516139d2565b905060006146288561012001518661014001518761024001518861026001518961028001518a6102a001516139d2565b90508181101561463757600080fd5b60e08401516001600160a01b031661464f5780610db3565b509392505050565b60008061466384613eda565b9050614670818585613ef0565b6105b857600080fd5b60006105b88284615eb6565b60006105b88284615e97565b60006105b88284615e77565b60006105b88284615e5f565b600042831080156105b857508115806105b85750504210919050565b604080516103008082526103208201909252600091908290826020820181803683370190505090506020810161471b817ff96c4a48faf4132b41175d6a5327bb8397a34c7458cacd9e030f440fab20cd59614f7a565b905061472b818660000151614f7a565b905061473b818660200151614f7a565b905061474b818660400151614f7a565b905061475b818660600151614f7a565b905061476b818660800151614f7a565b905061477b818660a00151614f7a565b905061478b818660c00151614f7a565b905061479b818660e00151614f7a565b90506147cb8186610100015160018111156147c657634e487b7160e01b600052602160045260246000fd5b614f7a565b90506147f68186610120015160018111156147c657634e487b7160e01b600052602160045260246000fd5b90506148218186610140015160018111156147c657634e487b7160e01b600052602160045260246000fd5b905061483281866101600151614f7a565b905061485d8186610180015160018111156147c657634e487b7160e01b600052602160045260246000fd5b905061487581866101a0015180519060200120614f7a565b905061488d81866101c0015180519060200120614f7a565b905061489e81866101e00151614f7a565b90506148b68186610200015180519060200120614f7a565b90506148c781866102200151614f7a565b90506148d881866102400151614f7a565b90506148e981866102600151614f7a565b90506148fa81866102800151614f7a565b905061490b81866102a00151614f7a565b905061491c81866102c00151614f7a565b50506020012092915050565b6000828260405160200161493d929190615b65565b60405160208183030381529060405280519060200120905092915050565b6102208101516000906001600160a01b03161561497d57341561497d57600080fd5b600061498984846145c9565b90506000811180156149a857506102208301516001600160a01b031615155b156149c6576149c68361022001518560200151856020015184614f82565b60e0830151819081906001600160a01b031615614d04578560800151856080015111156149f257600080fd5b60018561010001516001811115614a1957634e487b7160e01b600052602160045260246000fd5b1415614cbd578560c001518560c001511115614a3457600080fd5b606085015115614ad7576000614a59614a51876060015186614685565b612710614691565b6102208701519091506001600160a01b0316614abc57614a798382614679565b60e08701516040519194506001600160a01b03169082156108fc029083906000818181858888f19350505050158015614ab6573d6000803e3d6000fd5b50614ad5565b614ad586610220015187602001518860e0015184614f82565b505b608085015115614b72576000614af4614a51876080015186614685565b6102208701519091506001600160a01b0316614b5757614b14828261469d565b60e08701516040519193506001600160a01b03169082156108fc029083906000818181858888f19350505050158015614b51573d6000803e3d6000fd5b50614b70565b614b7086610220015188602001518860e0015184614f82565b505b60a085015115614c15576000614b8f614a518760a0015186614685565b6102208701519091506001600160a01b0316614bf057614baf8382614679565b600a546040519194506001600160a01b03169082156108fc029083906000818181858888f19350505050158015614bea573d6000803e3d6000fd5b50614c13565b6102208601516020870151600a54614c139291906001600160a01b031684614f82565b505b60c085015115614cb8576000614c32614a518760c0015186614685565b6102208701519091506001600160a01b0316614c9357614c52828261469d565b600a546040519193506001600160a01b03169082156108fc029083906000818181858888f19350505050158015614c8d573d6000803e3d6000fd5b50614cb6565b6102208601516020880151600a54614cb69291906001600160a01b031684614f82565b505b614cff565b606085015115614cde57614cde85602001518660e00151876060015161501f565b608085015115614cff57614cff86602001518660e00151876080015161501f565b614e8c565b846080015186608001511115614d1957600080fd5b60018561010001516001811115614d4057634e487b7160e01b600052602160045260246000fd5b1415614e4a576102208501516001600160a01b0316614d5e57600080fd5b8460c001518660c001511115614d7357600080fd5b606086015115614da657614da685610220015187602001518860e00151614da1614a518b6060015189614685565b614f82565b608086015115614dd457614dd485610220015186602001518860e00151614da1614a518b6080015189614685565b60a086015115614e0f576102208501516020870151600a5460a0890151614e0f9392916001600160a01b031690614da190614a519089614685565b60c086015115614cff576102208501516020860151600a5460c0890151614cff9392916001600160a01b031690614da190614a519089614685565b606086015115614e6b57614e6b86602001518760e00151886060015161501f565b608086015115614e8c57614e8c85602001518760e00151886080015161501f565b6102208501516001600160a01b03166139c85780341015614eac57600080fd5b84602001516001600160a01b03166108fc839081150290604051600060405180830381858888f19350505050158015614ee9573d6000803e3d6000fd5b506000614ef63483614679565b90508015614f3d5786602001516001600160a01b03166108fc829081150290604051600060405180830381858888f19350505050158015614f3b573d6000803e3d6000fd5b505b505090949350505050565b600080836001811115614f6b57634e487b7160e01b600052602160045260246000fd5b14806105b85750501515919050565b815260200190565b801561501957600554604051630aed65f560e11b81526001600160a01b03909116906315dacbea90614fbe908790879087908790600401615b94565b602060405180830381600087803b158015614fd857600080fd5b505af1158015614fec573d6000803e3d6000fd5b505050506040513d601f19601f82011682018060405250810190615010919061599c565b61501957600080fd5b50505050565b600354615037906001600160a01b0316848484614f82565b505050565b600061504f61504a84615e3f565b615e16565b905080826020868187028601111561506657600080fd5b60005b8681101561508557823584529281019291810191600101615069565b505050509392505050565b600061509e61504a84615e3f565b90508082602086818702860111156150b557600080fd5b60005b86811015615085576150c983615339565b845292810192918101916001016150b8565b600082601f8301126150eb578081fd5b6040516101c08082018281106001600160401b038211171561510f5761510f615efe565b6040528184828101871015615122578485fd5b8492505b600e83101561514f57803561513a81615f32565b82526001929092019160209182019101615126565b509195945050505050565b600082601f83011261516a578081fd5b60405160e081018181106001600160401b038211171561518c5761518c615efe565b604052808360e081018610156151a0578384fd5b835b600781101561514f5781356151b681615f32565b835260209283019291909101906001016151a2565b600082601f8301126151db578081fd5b6105b88360028461503c565b600082601f8301126151f7578081fd5b6105b88360058461503c565b600082601f830112615213578081fd5b6105b88360128461503c565b600082601f83011261522f578081fd5b6105b88360098461503c565b600082601f83011261524b578081fd5b6105b883600284615090565b600082601f830112615267578081fd5b6105b883600884615090565b803561396981615f47565b60008083601f84011261528f578182fd5b5081356001600160401b038111156152a5578182fd5b6020830191508360208285010111156152bd57600080fd5b9250929050565b600082601f8301126152d4578081fd5b81356001600160401b038111156152ed576152ed615efe565b615300601f8201601f1916602001615e16565b818152846020838601011115615314578283fd5b816020850160208301379081016020019190915292915050565b803561396981615f55565b803560ff8116811461396957600080fd5b60006020828403121561535b578081fd5b81356105b881615f32565b600060208284031215615377578081fd5b81516105b881615f32565b600080600060608486031215615396578182fd5b83356153a181615f32565b925060208401356001600160401b03808211156153bc578384fd5b6153c8878388016152c4565b935060408601359150808211156153dd578283fd5b506153ea868287016152c4565b9150509250925092565b60008060008060008060008060006105c08a8c031215615412578687fd5b61541c8b8b6150db565b985061542c8b6101c08c01615203565b975061543c8b6104008c01615257565b96506105008a01356001600160401b0380821115615458578687fd5b6154648d838e016152c4565b97506105208c013591508082111561547a578687fd5b6154868d838e016152c4565b96506105408c013591508082111561549c578586fd5b6154a88d838e016152c4565b95506105608c01359150808211156154be578485fd5b6154ca8d838e016152c4565b94506105808c01359150808211156154e0578384fd5b6154ec8d838e016152c4565b93506105a08c0135915080821115615502578283fd5b5061550f8c828d016152c4565b9150509295985092959850929598565b60008060008060008060008060008060006106a08c8e031215615540578485fd5b61554a8d8d6150db565b9a5061555a8d6101c08e01615203565b995061556a8d6104008e01615257565b98506001600160401b03806105008e01351115615585578586fd5b6155968e6105008f01358f016152c4565b9850806105208e013511156155a9578586fd5b6155ba8e6105208f01358f016152c4565b9750806105408e013511156155cd578586fd5b6155de8e6105408f01358f016152c4565b9650806105608e013511156155f1578586fd5b6156028e6105608f01358f016152c4565b9550806105808e01351115615615578283fd5b6156268e6105808f01358f016152c4565b9450806105a08e01351115615639578283fd5b5061564b8d6105a08e01358e016152c4565b925061565b8d6105c08e0161523b565b915061566b8d6106008e016151e7565b90509295989b509295989b9093969950565b6000806000806000806000806000806102e08b8d03121561569c578384fd5b6156a68c8c61515a565b99506156b58c60e08d0161521f565b98506156c46102008c0161532e565b97506156d36102208c0161532e565b96506156e26102408c0161532e565b95506156f16102608c0161532e565b94506102808b01356001600160401b038082111561570d578586fd5b6157198e838f0161527e565b90965094506102a08d0135915080821115615732578384fd5b61573e8e838f016152c4565b93506102c08d0135915080821115615754578283fd5b506157618d828e016152c4565b9150509295989b9194979a5092959850565b60008060008060008060008060008060006103008c8e031215615794578485fd5b61579e8d8d61515a565b9a506157ad8d60e08e0161521f565b99506157bc6102008d0161532e565b98506157cb6102208d0161532e565b97506157da6102408d0161532e565b96506157e96102608d0161532e565b95506001600160401b03806102808e01351115615804578586fd5b6158158e6102808f01358f0161527e565b90965094506102a08d013581101561582b578182fd5b61583c8e6102a08f01358f016152c4565b9350806102c08e0135111561584f578182fd5b506158618d6102c08e01358e016152c4565b915061566b6102e08d01615273565b6000806000806000806000806000806000806103408d8f031215615892578586fd5b61589c8e8e61515a565b9b506158ab8e60e08f0161521f565b9a506158ba6102008e0161532e565b99506158c96102208e0161532e565b98506158d86102408e0161532e565b97506158e76102608e0161532e565b96506001600160401b036102808e01351115615901578586fd5b6159128e6102808f01358f0161527e565b90965094506001600160401b036102a08e0135111561592f578081fd5b6159408e6102a08f01358f016152c4565b93506001600160401b036102c08e0135111561595a578081fd5b61596b8e6102c08f01358f016152c4565b925061597a6102e08e01615339565b915061598a8e6103008f016151cb565b90509295989b509295989b509295989b565b6000602082840312156159ad578081fd5b81516105b881615f47565b6000602082840312156159c9578081fd5b5035919050565b6000806000606084860312156159e4578081fd5b83356001600160401b03808211156159fa578283fd5b615a06878388016152c4565b945060208601359150808211156153bc578283fd5b60008060008060808587031215615a30578182fd5b84356001600160401b0380821115615a46578384fd5b615a52888389016152c4565b95506020870135915080821115615a67578384fd5b615a73888389016152c4565b94506040870135915080821115615a88578384fd5b615a94888389016152c4565b93506060870135915080821115615aa9578283fd5b50615ab6878288016152c4565b91505092959194509250565b60008060008060008060c08789031215615ada578384fd5b8635615ae581615f55565b95506020870135615af581615f55565b95989597505050506040840135936060810135936080820135935060a0909101359150565b60008151808452815b81811015615b3f57602081850181015186830182015201615b23565b81811115615b505782602083870101525b50601f01601f19169290920160200192915050565b61190160f01b81526002810192909252602282015260420190565b6001600160a01b0391909116815260200190565b6001600160a01b039485168152928416602084015292166040820152606081019190915260800190565b6001600160a01b038b811682528a81166020830152604082018a9052606082018990526080820188905260a08201879052610140820190615bfe87615f14565b8660c0840152615c0d86615f14565b8560e0840152615c1c85615f14565b84610100840152808416610120840152509b9a5050505050505050505050565b6001600160a01b03841681526000615c5384615f14565b83602083015260606040830152610db36060830184615b1a565b901515815260200190565b90815260200190565b9283526020830191909152604082015260600190565b93845260ff9290921660208401526040830152606082015260800190565b6000602082526105b86020830184615b1a565b6000610180615cd68f615f14565b8e8352806020840152615ceb8184018f615b1a565b90508281036040840152615cff818e615b1a565b6001600160a01b038d811660608601528482036080860152909150615d24828d615b1a565b9a1660a0840152505060c081019690965260e086019490945261010085019290925261012084015261014083015215156101609091015295945050505050565b60208082526026908201527f4f776e61626c653a206e6577206f776e657220697320746865207a65726f206160408201526564647265737360d01b606082015260800190565b6020808252818101527f4f776e61626c653a2063616c6c6572206973206e6f7420746865206f776e6572604082015260600190565b6020808252601f908201527f5265656e7472616e637947756172643a207265656e7472616e742063616c6c00604082015260600190565b6040518181016001600160401b0381118282101715615e3757615e37615efe565b604052919050565b60006001600160401b03821115615e5857615e58615efe565b5060200290565b60008219821115615e7257615e72615ee8565b500190565b600082615e9257634e487b7160e01b81526012600452602481fd5b500490565b6000816000190483118215151615615eb157615eb1615ee8565b500290565b600082821015615ec857615ec8615ee8565b500390565b6000600019821415615ee157615ee1615ee8565b5060010190565b634e487b7160e01b600052601160045260246000fd5b634e487b7160e01b600052604160045260246000fd5b6002811061369657634e487b7160e01b600052602160045260246000fd5b6001600160a01b038116811461369657600080fd5b801515811461369657600080fd5b6002811061369657600080fdfea2646970667358221220ee6c12b0f85bc08333726449705f74a422ed1cc491606970ae5cd8a9e78ca42f64736f6c63430008000033",
  "deployedBytecode": "0x6080604052600436106101b75760003560e01c806379666868116100ec578063a25eb5d91161008a578063cae6047f11610064578063cae6047f14610475578063d537e1311461048a578063e57d4adb146104aa578063f2fde38b146104ca576101b7565b8063a25eb5d91461042d578063ab834bab14610442578063ca595b9a14610455576101b7565b80637d766981116100c65780637d766981146103b85780638076f005146103d85780638911ebea146103f85780638da5cb5b14610418576101b7565b8063796668681461036e5780637b1039991461038e5780637ccefc52146103a3576101b7565b80633f67ee0d1161015957806363d36c0b1161013357806363d36c0b1461030457806364df049e14610324578063715018a61461033957806372593b4c1461034e576101b7565b80633f67ee0d146102af57806354fd4d50146102cf578063562b2ebc146102e4576101b7565b8063239e83df11610195578063239e83df1461023657806328a8ee681461025657806329a03acf146102785780633644e5151461029a576101b7565b806306fdde03146101bc5780630eefdbad146101e757806310796a4714610209575b600080fd5b3480156101c857600080fd5b506101d16104ea565b6040516101de9190615cb5565b60405180910390f35b3480156101f357600080fd5b506101fc610518565b6040516101de9190615b80565b34801561021557600080fd5b50610229610224366004615382565b610527565b6040516101de9190615c6d565b34801561024257600080fd5b506101d16102513660046159d0565b6105bf565b34801561026257600080fd5b5061026b6105d4565b6040516101de9190615c78565b34801561028457600080fd5b50610298610293366004615870565b6105da565b005b3480156102a657600080fd5b5061026b6109ce565b3480156102bb57600080fd5b5061026b6102ca36600461567d565b6109d4565b3480156102db57600080fd5b506101d1610d63565b3480156102f057600080fd5b506102296102ff366004615a1b565b610d82565b34801561031057600080fd5b5061026b61031f366004615ac2565b610dbc565b34801561033057600080fd5b506101fc610dd9565b34801561034557600080fd5b50610298610de8565b34801561035a57600080fd5b506102296103693660046153f4565b610e3c565b34801561037a57600080fd5b50610298610389366004615773565b611641565b34801561039a57600080fd5b506101fc6119d2565b3480156103af57600080fd5b5061026b6119e1565b3480156103c457600080fd5b5061026b6103d336600461567d565b6119e7565b3480156103e457600080fd5b506102296103f33660046159b8565b611d67565b34801561040457600080fd5b50610229610413366004615870565b611d7c565b34801561042457600080fd5b506101fc6121a5565b34801561043957600080fd5b506101fc6121b4565b61029861045036600461551f565b6121c3565b34801561046157600080fd5b5061022961047036600461567d565b612a94565b34801561048157600080fd5b5061026b612e18565b34801561049657600080fd5b5061026b6104a53660046153f4565b612e1e565b3480156104b657600080fd5b506102296104c53660046159b8565b613613565b3480156104d657600080fd5b506102986104e536600461534a565b613628565b604051806040016040528060128152602001714e46545370616365582045786368616e676560701b81525081565b6005546001600160a01b031681565b600080825184516105389190615e5f565b6001600160401b0381111561055d57634e487b7160e01b600052604160045260246000fd5b6040519080825280601f01601f191660200182016040528015610587576020820181803683370190505b509050602081016105988185613699565b90506105a48186613699565b506000604051835160208501895afa925050505b9392505050565b60606105cc8484846136dc565b509192915050565b60095481565b6109c0604051806102e001604052808e60006007811061060a57634e487b7160e01b600052603260045260246000fd5b60200201516001600160a01b031681526020018e60016007811061063e57634e487b7160e01b600052603260045260246000fd5b60200201516001600160a01b031681526020018e60026007811061067257634e487b7160e01b600052603260045260246000fd5b60200201516001600160a01b031681526020018d6000600981106106a657634e487b7160e01b600052603260045260246000fd5b602002015181526020018d6001600981106106d157634e487b7160e01b600052603260045260246000fd5b602002015181526020018d6002600981106106fc57634e487b7160e01b600052603260045260246000fd5b602002015181526020018d60036009811061072757634e487b7160e01b600052603260045260246000fd5b602002015181526020018e60036007811061075257634e487b7160e01b600052603260045260246000fd5b60200201516001600160a01b031681526020018c600181111561078557634e487b7160e01b600052602160045260246000fd5b81526020018b60018111156107aa57634e487b7160e01b600052602160045260246000fd5b81526020018a60018111156107cf57634e487b7160e01b600052602160045260246000fd5b815260808f01516001600160a01b0316602082015260400189600181111561080757634e487b7160e01b600052602160045260246000fd5b815260200188888080601f0160208091040260200160405190810160405280939291908181526020018383808284376000920191909152505050908252506020810187905260a08f01516001600160a01b03166040820152606081018690526080018e600660200201516001600160a01b031681526020018d6004600981106108a057634e487b7160e01b600052603260045260246000fd5b602002015181526020018d6005600981106108cb57634e487b7160e01b600052603260045260246000fd5b602002015181526020018d6006600981106108f657634e487b7160e01b600052603260045260246000fd5b602002015181526020018d60076009811061092157634e487b7160e01b600052603260045260246000fd5b602002015181526020018d60086009811061094c57634e487b7160e01b600052603260045260246000fd5b602002015181525060405180606001604052808560ff1681526020018460006002811061098957634e487b7160e01b600052603260045260246000fd5b60200201518152602001846001600281106109b457634e487b7160e01b600052603260045260246000fd5b602002015190526138bc565b505050505050505050505050565b60025481565b6000610d54604051806102e001604052808d600060078110610a0657634e487b7160e01b600052603260045260246000fd5b60200201516001600160a01b031681526020018d600160078110610a3a57634e487b7160e01b600052603260045260246000fd5b60200201516001600160a01b031681526020018d600260078110610a6e57634e487b7160e01b600052603260045260246000fd5b60200201516001600160a01b031681526020018c600060098110610aa257634e487b7160e01b600052603260045260246000fd5b602002015181526020018c600160098110610acd57634e487b7160e01b600052603260045260246000fd5b602002015181526020018c600260098110610af857634e487b7160e01b600052603260045260246000fd5b602002015181526020018c600360098110610b2357634e487b7160e01b600052603260045260246000fd5b602002015181526020018d600360078110610b4e57634e487b7160e01b600052603260045260246000fd5b60200201516001600160a01b031681526020018b6001811115610b8157634e487b7160e01b600052602160045260246000fd5b81526020018a6001811115610ba657634e487b7160e01b600052602160045260246000fd5b8152602001896001811115610bcb57634e487b7160e01b600052602160045260246000fd5b815260808e01516001600160a01b03166020820152604001886001811115610c0357634e487b7160e01b600052602160045260246000fd5b815260200187878080601f0160208091040260200160405190810160405280939291908181526020018383808284376000920191909152505050908252506020810186905260a08e01516001600160a01b03166040820152606081018590526080018d600660200201516001600160a01b031681526020018c600460098110610c9c57634e487b7160e01b600052603260045260246000fd5b602002015181526020018c600560098110610cc757634e487b7160e01b600052603260045260246000fd5b602002015181526020018c600660098110610cf257634e487b7160e01b600052603260045260246000fd5b602002015181526020018c600760098110610d1d57634e487b7160e01b600052603260045260246000fd5b602002015181526020018c600860098110610d4857634e487b7160e01b600052603260045260246000fd5b60200201519052613938565b9b9a5050505050505050505050565b604051806040016040528060038152602001620312e360ec1b81525081565b825160009015610d9757610d978584866136dc565b815115610da957610da98386846136dc565b610db3858461396e565b95945050505050565b6000610dcc8787878787876139d2565b90505b9695505050505050565b600a546001600160a01b031681565b610df0613a97565b6001600160a01b0316610e016121a5565b6001600160a01b031614610e305760405162461bcd60e51b8152600401610e2790615daa565b60405180910390fd5b610e3a6000613a9b565b565b600080604051806102e001604052808c6000600e8110610e6c57634e487b7160e01b600052603260045260246000fd5b60200201516001600160a01b031681526020018c6001600e8110610ea057634e487b7160e01b600052603260045260246000fd5b60200201516001600160a01b031681526020018c6002600e8110610ed457634e487b7160e01b600052603260045260246000fd5b60200201516001600160a01b031681526020018b600060128110610f0857634e487b7160e01b600052603260045260246000fd5b602002015181526020018b600160128110610f3357634e487b7160e01b600052603260045260246000fd5b602002015181526020018b600260128110610f5e57634e487b7160e01b600052603260045260246000fd5b602002015181526020018b600360128110610f8957634e487b7160e01b600052603260045260246000fd5b602002015181526020018c6003600e8110610fb457634e487b7160e01b600052603260045260246000fd5b60200201516001600160a01b031681526020018a600060088110610fe857634e487b7160e01b600052603260045260246000fd5b602002015160ff16600181111561100f57634e487b7160e01b600052602160045260246000fd5b600181111561102e57634e487b7160e01b600052602160045260246000fd5b81526020018a6001602002015160ff16600181111561105d57634e487b7160e01b600052602160045260246000fd5b600181111561107c57634e487b7160e01b600052602160045260246000fd5b81526020018a6002602002015160ff1660018111156110ab57634e487b7160e01b600052602160045260246000fd5b60018111156110ca57634e487b7160e01b600052602160045260246000fd5b815260808d01516001600160a01b031660208201526040018a6003602002015160ff16600181111561110c57634e487b7160e01b600052602160045260246000fd5b600181111561112b57634e487b7160e01b600052602160045260246000fd5b8152602081018a90526040810188905260a0808e01516001600160a01b0316606083015260808201879052018c600660200201516001600160a01b031681526020018b60046012811061118e57634e487b7160e01b600052603260045260246000fd5b602002015181526020018b6005601281106111b957634e487b7160e01b600052603260045260246000fd5b602002015181526020018b6006601281106111e457634e487b7160e01b600052603260045260246000fd5b602002015181526020018b60076012811061120f57634e487b7160e01b600052603260045260246000fd5b602002015181526020018b60086012811061123a57634e487b7160e01b600052603260045260246000fd5b602002015181525090506000604051806102e001604052808d6007600e811061127357634e487b7160e01b600052603260045260246000fd5b60200201516001600160a01b031681526020018d6008600e81106112a757634e487b7160e01b600052603260045260246000fd5b60200201516001600160a01b031681526020018d6009600e81106112db57634e487b7160e01b600052603260045260246000fd5b60200201516001600160a01b031681526020018c60096012811061130f57634e487b7160e01b600052603260045260246000fd5b602002015181526020018c600a6012811061133a57634e487b7160e01b600052603260045260246000fd5b602002015181526020018c600b6012811061136557634e487b7160e01b600052603260045260246000fd5b602002015181526020018c600c6012811061139057634e487b7160e01b600052603260045260246000fd5b602002015181526020018d600a600e81106113bb57634e487b7160e01b600052603260045260246000fd5b60200201516001600160a01b031681526020018b6004600881106113ef57634e487b7160e01b600052603260045260246000fd5b602002015160ff16600181111561141657634e487b7160e01b600052602160045260246000fd5b600181111561143557634e487b7160e01b600052602160045260246000fd5b81526020018b6005602002015160ff16600181111561146457634e487b7160e01b600052602160045260246000fd5b600181111561148357634e487b7160e01b600052602160045260246000fd5b81526020018b6006602002015160ff1660018111156114b257634e487b7160e01b600052602160045260246000fd5b60018111156114d157634e487b7160e01b600052602160045260246000fd5b81526101608e01516001600160a01b031660208201526040018b6007602002015160ff16600181111561151457634e487b7160e01b600052602160045260246000fd5b600181111561153357634e487b7160e01b600052602160045260246000fd5b8152602081018a9052604081018890526101808e01516001600160a01b039081166060830152608082018790526101a08f01511660a082015260c0018c600d602002015181526020018c600e6012811061159d57634e487b7160e01b600052603260045260246000fd5b602002015181526020018c600f601281106115c857634e487b7160e01b600052603260045260246000fd5b602002015181526020018c6010601281106115f357634e487b7160e01b600052603260045260246000fd5b602002015181526020018c60116012811061161e57634e487b7160e01b600052603260045260246000fd5b6020020151905290506116318282613aed565b9c9b505050505050505050505050565b6000604051806102e001604052808d60006007811061167057634e487b7160e01b600052603260045260246000fd5b60200201516001600160a01b031681526020018d6001600781106116a457634e487b7160e01b600052603260045260246000fd5b60200201516001600160a01b031681526020018d6002600781106116d857634e487b7160e01b600052603260045260246000fd5b60200201516001600160a01b031681526020018c60006009811061170c57634e487b7160e01b600052603260045260246000fd5b602002015181526020018c60016009811061173757634e487b7160e01b600052603260045260246000fd5b602002015181526020018c60026009811061176257634e487b7160e01b600052603260045260246000fd5b602002015181526020018c60036009811061178d57634e487b7160e01b600052603260045260246000fd5b602002015181526020018d6003600781106117b857634e487b7160e01b600052603260045260246000fd5b60200201516001600160a01b031681526020018b60018111156117eb57634e487b7160e01b600052602160045260246000fd5b81526020018a600181111561181057634e487b7160e01b600052602160045260246000fd5b815260200189600181111561183557634e487b7160e01b600052602160045260246000fd5b815260808e01516001600160a01b0316602082015260400188600181111561186d57634e487b7160e01b600052602160045260246000fd5b815260200187878080601f0160208091040260200160405190810160405280939291908181526020018383808284376000920191909152505050908252506020810186905260a08e01516001600160a01b03166040820152606081018590526080018d600660200201516001600160a01b031681526020018c60046009811061190657634e487b7160e01b600052603260045260246000fd5b602002015181526020018c60056009811061193157634e487b7160e01b600052603260045260246000fd5b602002015181526020018c60066009811061195c57634e487b7160e01b600052603260045260246000fd5b602002015181526020018c60076009811061198757634e487b7160e01b600052603260045260246000fd5b602002015181526020018c6008600981106119b257634e487b7160e01b600052603260045260246000fd5b6020020151905290506109c08183613d3f565b5050505050505050505050565b6004546001600160a01b031681565b60085481565b6000610d54604051806102e001604052808d600060078110611a1957634e487b7160e01b600052603260045260246000fd5b60200201516001600160a01b031681526020018d600160078110611a4d57634e487b7160e01b600052603260045260246000fd5b60200201516001600160a01b031681526020018d600260078110611a8157634e487b7160e01b600052603260045260246000fd5b60200201516001600160a01b031681526020018c600060098110611ab557634e487b7160e01b600052603260045260246000fd5b602002015181526020018c600160098110611ae057634e487b7160e01b600052603260045260246000fd5b602002015181526020018c600260098110611b0b57634e487b7160e01b600052603260045260246000fd5b602002015181526020018c600360098110611b3657634e487b7160e01b600052603260045260246000fd5b602002015181526020018d600360078110611b6157634e487b7160e01b600052603260045260246000fd5b60200201516001600160a01b031681526020018b6001811115611b9457634e487b7160e01b600052602160045260246000fd5b81526020018a6001811115611bb957634e487b7160e01b600052602160045260246000fd5b8152602001896001811115611bde57634e487b7160e01b600052602160045260246000fd5b815260808e01516001600160a01b03166020820152604001886001811115611c1657634e487b7160e01b600052602160045260246000fd5b815260200187878080601f0160208091040260200160405190810160405280939291908181526020018383808284376000920191909152505050908252506020810186905260a08e01516001600160a01b03166040820152606081018590526080018d600660200201516001600160a01b031681526020018c600460098110611caf57634e487b7160e01b600052603260045260246000fd5b602002015181526020018c600560098110611cda57634e487b7160e01b600052603260045260246000fd5b602002015181526020018c600660098110611d0557634e487b7160e01b600052603260045260246000fd5b602002015181526020018c600760098110611d3057634e487b7160e01b600052603260045260246000fd5b602002015181526020018c600860098110611d5b57634e487b7160e01b600052603260045260246000fd5b60200201519052613eda565b60066020526000908152604090205460ff1681565b600080604051806102e001604052808f600060078110611dac57634e487b7160e01b600052603260045260246000fd5b60200201516001600160a01b031681526020018f600160078110611de057634e487b7160e01b600052603260045260246000fd5b60200201516001600160a01b031681526020018f600260078110611e1457634e487b7160e01b600052603260045260246000fd5b60200201516001600160a01b031681526020018e600060098110611e4857634e487b7160e01b600052603260045260246000fd5b602002015181526020018e600160098110611e7357634e487b7160e01b600052603260045260246000fd5b602002015181526020018e600260098110611e9e57634e487b7160e01b600052603260045260246000fd5b602002015181526020018e600360098110611ec957634e487b7160e01b600052603260045260246000fd5b602002015181526020018f600360078110611ef457634e487b7160e01b600052603260045260246000fd5b60200201516001600160a01b031681526020018d6001811115611f2757634e487b7160e01b600052602160045260246000fd5b81526020018c6001811115611f4c57634e487b7160e01b600052602160045260246000fd5b81526020018b6001811115611f7157634e487b7160e01b600052602160045260246000fd5b81526020018f600460200201516001600160a01b031681526020018a6001811115611fac57634e487b7160e01b600052602160045260246000fd5b815260200189898080601f016020809104026020016040519081016040528093929190818152602001838380828437600092019190915250505090825250602081018890526040018f600560200201516001600160a01b031681526020018681526020018f60066007811061203157634e487b7160e01b600052603260045260246000fd5b60200201516001600160a01b031681526020018e60046009811061206557634e487b7160e01b600052603260045260246000fd5b602002015181526020018e60056009811061209057634e487b7160e01b600052603260045260246000fd5b602002015181526020018e6006600981106120bb57634e487b7160e01b600052603260045260246000fd5b602002015181526020018e6007600981106120e657634e487b7160e01b600052603260045260246000fd5b602002015181526020018e60086009811061211157634e487b7160e01b600052603260045260246000fd5b60200201519052905061219361212682613eda565b8260405180606001604052808860ff1681526020018760006002811061215c57634e487b7160e01b600052603260045260246000fd5b602002015181526020018760016002811061218757634e487b7160e01b600052603260045260246000fd5b60200201519052613ef0565b9e9d5050505050505050505050505050565b6001546001600160a01b031690565b6003546001600160a01b031681565b6119c5604051806102e001604052808d6000600e81106121f357634e487b7160e01b600052603260045260246000fd5b60200201516001600160a01b031681526020018d6001600e811061222757634e487b7160e01b600052603260045260246000fd5b60200201516001600160a01b031681526020018d6002600e811061225b57634e487b7160e01b600052603260045260246000fd5b60200201516001600160a01b031681526020018c60006012811061228f57634e487b7160e01b600052603260045260246000fd5b602002015181526020018c6001601281106122ba57634e487b7160e01b600052603260045260246000fd5b602002015181526020018c6002601281106122e557634e487b7160e01b600052603260045260246000fd5b602002015181526020018c60036012811061231057634e487b7160e01b600052603260045260246000fd5b602002015181526020018d6003600e811061233b57634e487b7160e01b600052603260045260246000fd5b60200201516001600160a01b031681526020018b60006008811061236f57634e487b7160e01b600052603260045260246000fd5b602002015160ff16600181111561239657634e487b7160e01b600052602160045260246000fd5b60018111156123b557634e487b7160e01b600052602160045260246000fd5b81526020018b6001602002015160ff1660018111156123e457634e487b7160e01b600052602160045260246000fd5b600181111561240357634e487b7160e01b600052602160045260246000fd5b81526020018b6002602002015160ff16600181111561243257634e487b7160e01b600052602160045260246000fd5b600181111561245157634e487b7160e01b600052602160045260246000fd5b815260808e01516001600160a01b031660208201526040018b6003602002015160ff16600181111561249357634e487b7160e01b600052602160045260246000fd5b60018111156124b257634e487b7160e01b600052602160045260246000fd5b8152602081018b90526040810189905260a0808f01516001600160a01b0316606083015260808201889052018d600660200201516001600160a01b031681526020018c60046012811061251557634e487b7160e01b600052603260045260246000fd5b602002015181526020018c60056012811061254057634e487b7160e01b600052603260045260246000fd5b602002015181526020018c60066012811061256b57634e487b7160e01b600052603260045260246000fd5b602002015181526020018c60076012811061259657634e487b7160e01b600052603260045260246000fd5b602002015181526020018c6008601281106125c157634e487b7160e01b600052603260045260246000fd5b6020908102919091015190915260408051606081018252865160ff168152855192810192909252810184600160200201519052604080516102e08101909152808f600760200201516001600160a01b031681526020018f6008600e811061263857634e487b7160e01b600052603260045260246000fd5b60200201516001600160a01b031681526020018f6009600e811061266c57634e487b7160e01b600052603260045260246000fd5b60200201516001600160a01b031681526020018e6009601281106126a057634e487b7160e01b600052603260045260246000fd5b602002015181526020018e600a601281106126cb57634e487b7160e01b600052603260045260246000fd5b602002015181526020018e600b601281106126f657634e487b7160e01b600052603260045260246000fd5b602002015181526020018e600c6012811061272157634e487b7160e01b600052603260045260246000fd5b602002015181526020018f600a600e811061274c57634e487b7160e01b600052603260045260246000fd5b60200201516001600160a01b031681526020018d60046008811061278057634e487b7160e01b600052603260045260246000fd5b602002015160ff1660018111156127a757634e487b7160e01b600052602160045260246000fd5b60018111156127c657634e487b7160e01b600052602160045260246000fd5b81526020018d6005602002015160ff1660018111156127f557634e487b7160e01b600052602160045260246000fd5b600181111561281457634e487b7160e01b600052602160045260246000fd5b81526020018d6006602002015160ff16600181111561284357634e487b7160e01b600052602160045260246000fd5b600181111561286257634e487b7160e01b600052602160045260246000fd5b81526020018f600b60200201516001600160a01b031681526020018d60076008811061289e57634e487b7160e01b600052603260045260246000fd5b602002015160ff1660018111156128c557634e487b7160e01b600052602160045260246000fd5b60018111156128e457634e487b7160e01b600052602160045260246000fd5b8152602081018c9052604081018a90526060018f600c60200201516001600160a01b031681526020018781526020018f600d600e811061293457634e487b7160e01b600052603260045260246000fd5b60200201516001600160a01b031681526020018e600d6012811061296857634e487b7160e01b600052603260045260246000fd5b602002015181526020018e600e6012811061299357634e487b7160e01b600052603260045260246000fd5b602002015181526020018e600f601281106129be57634e487b7160e01b600052603260045260246000fd5b602002015181526020018e6010601281106129e957634e487b7160e01b600052603260045260246000fd5b602002015181526020018e601160128110612a1457634e487b7160e01b600052603260045260246000fd5b60200201519052604080516060810190915280876001602002015160ff16815260200186600260058110612a5857634e487b7160e01b600052603260045260246000fd5b6020020151815260200186600360058110612a8357634e487b7160e01b600052603260045260246000fd5b60200201519052608086015161400b565b600080604051806102e001604052808d600060078110612ac457634e487b7160e01b600052603260045260246000fd5b60200201516001600160a01b031681526020018d600160078110612af857634e487b7160e01b600052603260045260246000fd5b60200201516001600160a01b031681526020018d600260078110612b2c57634e487b7160e01b600052603260045260246000fd5b60200201516001600160a01b031681526020018c600060098110612b6057634e487b7160e01b600052603260045260246000fd5b602002015181526020018c600160098110612b8b57634e487b7160e01b600052603260045260246000fd5b602002015181526020018c600260098110612bb657634e487b7160e01b600052603260045260246000fd5b602002015181526020018c600360098110612be157634e487b7160e01b600052603260045260246000fd5b602002015181526020018d600360078110612c0c57634e487b7160e01b600052603260045260246000fd5b60200201516001600160a01b031681526020018b6001811115612c3f57634e487b7160e01b600052602160045260246000fd5b81526020018a6001811115612c6457634e487b7160e01b600052602160045260246000fd5b8152602001896001811115612c8957634e487b7160e01b600052602160045260246000fd5b815260808e01516001600160a01b03166020820152604001886001811115612cc157634e487b7160e01b600052602160045260246000fd5b815260200187878080601f0160208091040260200160405190810160405280939291908181526020018383808284376000920191909152505050908252506020810186905260a08e01516001600160a01b03166040820152606081018590526080018d600660200201516001600160a01b031681526020018c600460098110612d5a57634e487b7160e01b600052603260045260246000fd5b602002015181526020018c600560098110612d8557634e487b7160e01b600052603260045260246000fd5b602002015181526020018c600660098110612db057634e487b7160e01b600052603260045260246000fd5b602002015181526020018c600760098110612ddb57634e487b7160e01b600052603260045260246000fd5b602002015181526020018c600860098110612e0657634e487b7160e01b600052603260045260246000fd5b60200201519052905061163181614530565b61271081565b600080604051806102e001604052808c6000600e8110612e4e57634e487b7160e01b600052603260045260246000fd5b60200201516001600160a01b031681526020018c6001600e8110612e8257634e487b7160e01b600052603260045260246000fd5b60200201516001600160a01b031681526020018c6002600e8110612eb657634e487b7160e01b600052603260045260246000fd5b60200201516001600160a01b031681526020018b600060128110612eea57634e487b7160e01b600052603260045260246000fd5b602002015181526020018b600160128110612f1557634e487b7160e01b600052603260045260246000fd5b602002015181526020018b600260128110612f4057634e487b7160e01b600052603260045260246000fd5b602002015181526020018b600360128110612f6b57634e487b7160e01b600052603260045260246000fd5b602002015181526020018c6003600e8110612f9657634e487b7160e01b600052603260045260246000fd5b60200201516001600160a01b031681526020018a600060088110612fca57634e487b7160e01b600052603260045260246000fd5b602002015160ff166001811115612ff157634e487b7160e01b600052602160045260246000fd5b600181111561301057634e487b7160e01b600052602160045260246000fd5b81526020018a6001602002015160ff16600181111561303f57634e487b7160e01b600052602160045260246000fd5b600181111561305e57634e487b7160e01b600052602160045260246000fd5b81526020018a6002602002015160ff16600181111561308d57634e487b7160e01b600052602160045260246000fd5b60018111156130ac57634e487b7160e01b600052602160045260246000fd5b815260808d01516001600160a01b031660208201526040018a6003602002015160ff1660018111156130ee57634e487b7160e01b600052602160045260246000fd5b600181111561310d57634e487b7160e01b600052602160045260246000fd5b8152602081018a90526040810188905260a0808e01516001600160a01b0316606083015260808201879052018c600660200201516001600160a01b031681526020018b60046012811061317057634e487b7160e01b600052603260045260246000fd5b602002015181526020018b60056012811061319b57634e487b7160e01b600052603260045260246000fd5b602002015181526020018b6006601281106131c657634e487b7160e01b600052603260045260246000fd5b602002015181526020018b6007601281106131f157634e487b7160e01b600052603260045260246000fd5b602002015181526020018b60086012811061321c57634e487b7160e01b600052603260045260246000fd5b602002015181525090506000604051806102e001604052808d6007600e811061325557634e487b7160e01b600052603260045260246000fd5b60200201516001600160a01b031681526020018d6008600e811061328957634e487b7160e01b600052603260045260246000fd5b60200201516001600160a01b031681526020018d6009600e81106132bd57634e487b7160e01b600052603260045260246000fd5b60200201516001600160a01b031681526020018c6009601281106132f157634e487b7160e01b600052603260045260246000fd5b602002015181526020018c600a6012811061331c57634e487b7160e01b600052603260045260246000fd5b602002015181526020018c600b6012811061334757634e487b7160e01b600052603260045260246000fd5b602002015181526020018c600c6012811061337257634e487b7160e01b600052603260045260246000fd5b602002015181526020018d600a600e811061339d57634e487b7160e01b600052603260045260246000fd5b60200201516001600160a01b031681526020018b6004600881106133d157634e487b7160e01b600052603260045260246000fd5b602002015160ff1660018111156133f857634e487b7160e01b600052602160045260246000fd5b600181111561341757634e487b7160e01b600052602160045260246000fd5b81526020018b6005602002015160ff16600181111561344657634e487b7160e01b600052602160045260246000fd5b600181111561346557634e487b7160e01b600052602160045260246000fd5b81526020018b6006602002015160ff16600181111561349457634e487b7160e01b600052602160045260246000fd5b60018111156134b357634e487b7160e01b600052602160045260246000fd5b81526101608e01516001600160a01b031660208201526040018b6007602002015160ff1660018111156134f657634e487b7160e01b600052602160045260246000fd5b600181111561351557634e487b7160e01b600052602160045260246000fd5b8152602081018a9052604081018890526101808e01516001600160a01b039081166060830152608082018790526101a08f01511660a082015260c0018c600d602002015181526020018c600e6012811061357f57634e487b7160e01b600052603260045260246000fd5b602002015181526020018c600f601281106135aa57634e487b7160e01b600052603260045260246000fd5b602002015181526020018c6010601281106135d557634e487b7160e01b600052603260045260246000fd5b602002015181526020018c60116012811061360057634e487b7160e01b600052603260045260246000fd5b60200201519052905061163182826145c9565b60076020526000908152604090205460ff1681565b613630613a97565b6001600160a01b03166136416121a5565b6001600160a01b0316146136675760405162461bcd60e51b8152600401610e2790615daa565b6001600160a01b03811661368d5760405162461bcd60e51b8152600401610e2790615d64565b61369681613a9b565b50565b8051600090156136d557815180602001830160208401855b600183831014156136cc5781518152602091820191016136b1565b50505092909201915b5090919050565b81518351146136ea57600080fd5b80518351146136f857600080fd5b6000602084516137089190615e77565b90506000613717826020615e97565b905081613725602083615e77565b1461374057634e487b7160e01b600052600160045260246000fd5b60005b8281101561377d5780600101602002808501518187015181168289015182191617828901525050808061377590615ecd565b915050613743565b82156137aa57829050806001016020028085015181870151811682890151821916178289015250506138b4565b50805b85518110156138b4578481815181106137d657634e487b7160e01b600052603260045260246000fd5b602001015160f81c60f81b84828151811061380157634e487b7160e01b600052603260045260246000fd5b602001015160f81c60f81b1686828151811061382d57634e487b7160e01b600052603260045260246000fd5b602001015160f81c60f81b85838151811061385857634e487b7160e01b600052603260045260246000fd5b602001015160f81c60f81b60ff60f81b18161786828151811061388b57634e487b7160e01b600052603260045260246000fd5b60200101906001600160f81b031916908160001a905350806138ac81615ecd565b9150506137ad565b505050505050565b60006138c88383614657565b905082602001516001600160a01b03166138e0613a97565b6001600160a01b0316146138f357600080fd5b600081815260066020526040808220805460ff191660011790555182917f5152abf959f6564662358c2e52b702259b78bac5ee7842a0f01937e670efcc7d91a2505050565b6000613966826101200151836101400151846102400151856102600151866102800151876102a001516139d2565b90505b919050565b81518151600091600191811480831461398a57600092506139c8565b600160208701838101602088015b6002848385100114156139c35780518351146139b75760009650600093505b60209283019201613998565b505050505b5090949350505050565b6000808660018111156139f557634e487b7160e01b600052602160045260246000fd5b1415613a02575083610dcf565b6001866001811115613a2457634e487b7160e01b600052602160045260246000fd5b1415610dcf576000613a51613a4286613a3d4288614679565b614685565b613a4c8587614679565b614691565b90506001886001811115613a7557634e487b7160e01b600052602160045260246000fd5b1415613a8d57613a858682614679565b915050610dcf565b613a85868261469d565b3390565b600180546001600160a01b038381166001600160a01b0319831681179093556040519116919082907f8be0079c531659141344cd1fd0a4f28419497f9722a3daafe3b4186f6b6457e090600090a35050565b6000808361012001516001811115613b1557634e487b7160e01b600052602160045260246000fd5b148015613b46575060018261012001516001811115613b4457634e487b7160e01b600052602160045260246000fd5b145b8015613b9957508161010001516001811115613b7257634e487b7160e01b600052602160045260246000fd5b8361010001516001811115613b9757634e487b7160e01b600052602160045260246000fd5b145b8015613bc057508161022001516001600160a01b03168361022001516001600160a01b0316145b8015613bfa575060408201516001600160a01b03161580613bfa575082602001516001600160a01b031682604001516001600160a01b0316145b8015613c34575060408301516001600160a01b03161580613c34575081602001516001600160a01b031683604001516001600160a01b0316145b8015613c8f575060e08201516001600160a01b0316158015613c62575060e08301516001600160a01b031615155b80613c8f575060e08201516001600160a01b031615801590613c8f575060e08301516001600160a01b0316155b8015613cb657508161016001516001600160a01b03168361016001516001600160a01b0316145b8015613d0957508161018001516001811115613ce257634e487b7160e01b600052602160045260246000fd5b8361018001516001811115613d0757634e487b7160e01b600052602160045260246000fd5b145b8015613d245750613d24836102800151846102a001516146a9565b80156105b857506105b8826102800151836102a001516146a9565b81602001516001600160a01b0316613d55613a97565b6001600160a01b031614613d6857600080fd5b6000613d7383613eda565b60008181526007602052604090205490915060ff1615613d9257600080fd5b60016007600083815260200190815260200160002060006101000a81548160ff0219169083151502179055508260e001516001600160a01b031683602001516001600160a01b0316827f90c7f9f5b58c15f0f635bfb99f55d3d78fdbef3559e7d8abf5c81052a527662286600001518760400151886060015189608001518a60a001518b60c001518c61010001518d61012001518e61014001518f6101600151604051613e489a99989796959493929190615bbe565b60405180910390a4807fe55393c778364e440d958b39ac1debd99dcfae3775a8a04d1e79124adf6a2d08846101800151856101a00151866101c00151876101e001518861020001518961022001518a61024001518b61026001518c61028001518d6102a001518e6102c001518e604051613ecd9c9b9a99989796959493929190615cc8565b60405180910390a2505050565b6000613966600254613eeb846146c5565b614928565b6000613efb83614530565b613f07575060006105b8565b60008481526006602052604090205460ff1615613f26575060006105b8565b60008481526007602052604090205460ff1615613f45575060016105b8565b6020808401518351918401516040808601519051630c2bf17b60e41b81526001600160a01b039093169373__$7109f9d235029bc2eecdd4bced8a9f77fe$__9363c2bf17b093613f9a938b9392600401615c97565b60206040518083038186803b158015613fb257600080fd5b505af4158015613fc6573d6000803e3d6000fd5b505050506040513d601f19601f82011682018060405250810190613fea9190615366565b6001600160a01b03161415614001575060016105b8565b5060009392505050565b6002600054141561402e5760405162461bcd60e51b8152600401610e2790615ddf565b6002600090815561403d613a97565b6001600160a01b031686602001516001600160a01b031614156140715761406386614530565b61406c57600080fd5b61407e565b61407b8686614657565b90505b6000614088613a97565b6001600160a01b031685602001516001600160a01b031614156140bc576140ae85614530565b6140b757600080fd5b6140c9565b6140c68585614657565b90505b6140d38786613aed565b6140dc57600080fd5b610160850151803b90816140ef57600080fd5b6101c0890151511561411557614115896101a00151886101a001518b6101c001516136dc565b6101c0870151511561413b5761413b876101a001518a6101a00151896101c001516136dc565b61414f896101a00151886101a0015161396e565b61415857600080fd5b60048054602089015160405163c455279160e01b81526000936001600160a01b039093169263c45527919261418f92909101615b80565b60206040518083038186803b1580156141a757600080fd5b505afa1580156141bb573d6000803e3d6000fd5b505050506040513d601f19601f820116820180604052508101906141df9190615366565b90506001600160a01b0381166141f457600080fd5b6004805460408051634b9026c760e11b815290516001600160a01b03909216926397204d8e928282019260209290829003018186803b15801561423657600080fd5b505afa15801561424a573d6000803e3d6000fd5b505050506040513d601f19601f8201168201806040525081019061426e9190615366565b6001600160a01b0316816001600160a01b0316635c60da1b6040518163ffffffff1660e01b815260040160206040518083038186803b1580156142b057600080fd5b505afa1580156142c4573d6000803e3d6000fd5b505050506040513d601f19601f820116820180604052508101906142e89190615366565b6001600160a01b0316146142fb57600080fd5b60208a015181906001600160a01b0316614313613a97565b6001600160a01b03161461433b576000868152600660205260409020805460ff191660011790555b88602001516001600160a01b0316614351613a97565b6001600160a01b031614614379576000858152600660205260409020805460ff191660011790555b60006143858c8b61495b565b9050816001600160a01b0316631b0f7ba98b61016001518c61018001518d6101a001516040518463ffffffff1660e01b81526004016143c693929190615c3c565b602060405180830381600087803b1580156143e057600080fd5b505af11580156143f4573d6000803e3d6000fd5b505050506040513d601f19601f82011682018060405250810190614418919061599c565b61442157600080fd5b6101e08c01516001600160a01b0316156144585761444f8c6101e001518b6101a001518e6102000151610527565b61445857600080fd5b6101e08a01516001600160a01b03161561448f576144868a6101e001518b6101a001518c6102000151610527565b61448f57600080fd5b60e08a015188906001600160a01b03166144ad578a602001516144b3565b8c602001515b60e08c01516001600160a01b0391821691166144d3578d602001516144d9565b8b602001515b6001600160a01b03167fc4109843e0b7d514e4c093114b863f8e7d8d9a458c372cd51bfe526b588006c98a8a8660405161451593929190615c81565b60405180910390a45050600160005550505050505050505050565b80516000906001600160a01b0316301461454c57506000613969565b614560826101400151836102a00151614f48565b61456c57506000613969565b6001826101000151600181111561459357634e487b7160e01b600052602160045260246000fd5b1480156145b457506008548260a0015110806145b457506009548260c00151105b156145c157506000613969565b506001919050565b6000806145f8836101200151846101400151856102400151866102600151876102800151886102a001516139d2565b905060006146288561012001518661014001518761024001518861026001518961028001518a6102a001516139d2565b90508181101561463757600080fd5b60e08401516001600160a01b031661464f5780610db3565b509392505050565b60008061466384613eda565b9050614670818585613ef0565b6105b857600080fd5b60006105b88284615eb6565b60006105b88284615e97565b60006105b88284615e77565b60006105b88284615e5f565b600042831080156105b857508115806105b85750504210919050565b604080516103008082526103208201909252600091908290826020820181803683370190505090506020810161471b817ff96c4a48faf4132b41175d6a5327bb8397a34c7458cacd9e030f440fab20cd59614f7a565b905061472b818660000151614f7a565b905061473b818660200151614f7a565b905061474b818660400151614f7a565b905061475b818660600151614f7a565b905061476b818660800151614f7a565b905061477b818660a00151614f7a565b905061478b818660c00151614f7a565b905061479b818660e00151614f7a565b90506147cb8186610100015160018111156147c657634e487b7160e01b600052602160045260246000fd5b614f7a565b90506147f68186610120015160018111156147c657634e487b7160e01b600052602160045260246000fd5b90506148218186610140015160018111156147c657634e487b7160e01b600052602160045260246000fd5b905061483281866101600151614f7a565b905061485d8186610180015160018111156147c657634e487b7160e01b600052602160045260246000fd5b905061487581866101a0015180519060200120614f7a565b905061488d81866101c0015180519060200120614f7a565b905061489e81866101e00151614f7a565b90506148b68186610200015180519060200120614f7a565b90506148c781866102200151614f7a565b90506148d881866102400151614f7a565b90506148e981866102600151614f7a565b90506148fa81866102800151614f7a565b905061490b81866102a00151614f7a565b905061491c81866102c00151614f7a565b50506020012092915050565b6000828260405160200161493d929190615b65565b60405160208183030381529060405280519060200120905092915050565b6102208101516000906001600160a01b03161561497d57341561497d57600080fd5b600061498984846145c9565b90506000811180156149a857506102208301516001600160a01b031615155b156149c6576149c68361022001518560200151856020015184614f82565b60e0830151819081906001600160a01b031615614d04578560800151856080015111156149f257600080fd5b60018561010001516001811115614a1957634e487b7160e01b600052602160045260246000fd5b1415614cbd578560c001518560c001511115614a3457600080fd5b606085015115614ad7576000614a59614a51876060015186614685565b612710614691565b6102208701519091506001600160a01b0316614abc57614a798382614679565b60e08701516040519194506001600160a01b03169082156108fc029083906000818181858888f19350505050158015614ab6573d6000803e3d6000fd5b50614ad5565b614ad586610220015187602001518860e0015184614f82565b505b608085015115614b72576000614af4614a51876080015186614685565b6102208701519091506001600160a01b0316614b5757614b14828261469d565b60e08701516040519193506001600160a01b03169082156108fc029083906000818181858888f19350505050158015614b51573d6000803e3d6000fd5b50614b70565b614b7086610220015188602001518860e0015184614f82565b505b60a085015115614c15576000614b8f614a518760a0015186614685565b6102208701519091506001600160a01b0316614bf057614baf8382614679565b600a546040519194506001600160a01b03169082156108fc029083906000818181858888f19350505050158015614bea573d6000803e3d6000fd5b50614c13565b6102208601516020870151600a54614c139291906001600160a01b031684614f82565b505b60c085015115614cb8576000614c32614a518760c0015186614685565b6102208701519091506001600160a01b0316614c9357614c52828261469d565b600a546040519193506001600160a01b03169082156108fc029083906000818181858888f19350505050158015614c8d573d6000803e3d6000fd5b50614cb6565b6102208601516020880151600a54614cb69291906001600160a01b031684614f82565b505b614cff565b606085015115614cde57614cde85602001518660e00151876060015161501f565b608085015115614cff57614cff86602001518660e00151876080015161501f565b614e8c565b846080015186608001511115614d1957600080fd5b60018561010001516001811115614d4057634e487b7160e01b600052602160045260246000fd5b1415614e4a576102208501516001600160a01b0316614d5e57600080fd5b8460c001518660c001511115614d7357600080fd5b606086015115614da657614da685610220015187602001518860e00151614da1614a518b6060015189614685565b614f82565b608086015115614dd457614dd485610220015186602001518860e00151614da1614a518b6080015189614685565b60a086015115614e0f576102208501516020870151600a5460a0890151614e0f9392916001600160a01b031690614da190614a519089614685565b60c086015115614cff576102208501516020860151600a5460c0890151614cff9392916001600160a01b031690614da190614a519089614685565b606086015115614e6b57614e6b86602001518760e00151886060015161501f565b608086015115614e8c57614e8c85602001518760e00151886080015161501f565b6102208501516001600160a01b03166139c85780341015614eac57600080fd5b84602001516001600160a01b03166108fc839081150290604051600060405180830381858888f19350505050158015614ee9573d6000803e3d6000fd5b506000614ef63483614679565b90508015614f3d5786602001516001600160a01b03166108fc829081150290604051600060405180830381858888f19350505050158015614f3b573d6000803e3d6000fd5b505b505090949350505050565b600080836001811115614f6b57634e487b7160e01b600052602160045260246000fd5b14806105b85750501515919050565b815260200190565b801561501957600554604051630aed65f560e11b81526001600160a01b03909116906315dacbea90614fbe908790879087908790600401615b94565b602060405180830381600087803b158015614fd857600080fd5b505af1158015614fec573d6000803e3d6000fd5b505050506040513d601f19601f82011682018060405250810190615010919061599c565b61501957600080fd5b50505050565b600354615037906001600160a01b0316848484614f82565b505050565b600061504f61504a84615e3f565b615e16565b905080826020868187028601111561506657600080fd5b60005b8681101561508557823584529281019291810191600101615069565b505050509392505050565b600061509e61504a84615e3f565b90508082602086818702860111156150b557600080fd5b60005b86811015615085576150c983615339565b845292810192918101916001016150b8565b600082601f8301126150eb578081fd5b6040516101c08082018281106001600160401b038211171561510f5761510f615efe565b6040528184828101871015615122578485fd5b8492505b600e83101561514f57803561513a81615f32565b82526001929092019160209182019101615126565b509195945050505050565b600082601f83011261516a578081fd5b60405160e081018181106001600160401b038211171561518c5761518c615efe565b604052808360e081018610156151a0578384fd5b835b600781101561514f5781356151b681615f32565b835260209283019291909101906001016151a2565b600082601f8301126151db578081fd5b6105b88360028461503c565b600082601f8301126151f7578081fd5b6105b88360058461503c565b600082601f830112615213578081fd5b6105b88360128461503c565b600082601f83011261522f578081fd5b6105b88360098461503c565b600082601f83011261524b578081fd5b6105b883600284615090565b600082601f830112615267578081fd5b6105b883600884615090565b803561396981615f47565b60008083601f84011261528f578182fd5b5081356001600160401b038111156152a5578182fd5b6020830191508360208285010111156152bd57600080fd5b9250929050565b600082601f8301126152d4578081fd5b81356001600160401b038111156152ed576152ed615efe565b615300601f8201601f1916602001615e16565b818152846020838601011115615314578283fd5b816020850160208301379081016020019190915292915050565b803561396981615f55565b803560ff8116811461396957600080fd5b60006020828403121561535b578081fd5b81356105b881615f32565b600060208284031215615377578081fd5b81516105b881615f32565b600080600060608486031215615396578182fd5b83356153a181615f32565b925060208401356001600160401b03808211156153bc578384fd5b6153c8878388016152c4565b935060408601359150808211156153dd578283fd5b506153ea868287016152c4565b9150509250925092565b60008060008060008060008060006105c08a8c031215615412578687fd5b61541c8b8b6150db565b985061542c8b6101c08c01615203565b975061543c8b6104008c01615257565b96506105008a01356001600160401b0380821115615458578687fd5b6154648d838e016152c4565b97506105208c013591508082111561547a578687fd5b6154868d838e016152c4565b96506105408c013591508082111561549c578586fd5b6154a88d838e016152c4565b95506105608c01359150808211156154be578485fd5b6154ca8d838e016152c4565b94506105808c01359150808211156154e0578384fd5b6154ec8d838e016152c4565b93506105a08c0135915080821115615502578283fd5b5061550f8c828d016152c4565b9150509295985092959850929598565b60008060008060008060008060008060006106a08c8e031215615540578485fd5b61554a8d8d6150db565b9a5061555a8d6101c08e01615203565b995061556a8d6104008e01615257565b98506001600160401b03806105008e01351115615585578586fd5b6155968e6105008f01358f016152c4565b9850806105208e013511156155a9578586fd5b6155ba8e6105208f01358f016152c4565b9750806105408e013511156155cd578586fd5b6155de8e6105408f01358f016152c4565b9650806105608e013511156155f1578586fd5b6156028e6105608f01358f016152c4565b9550806105808e01351115615615578283fd5b6156268e6105808f01358f016152c4565b9450806105a08e01351115615639578283fd5b5061564b8d6105a08e01358e016152c4565b925061565b8d6105c08e0161523b565b915061566b8d6106008e016151e7565b90509295989b509295989b9093969950565b6000806000806000806000806000806102e08b8d03121561569c578384fd5b6156a68c8c61515a565b99506156b58c60e08d0161521f565b98506156c46102008c0161532e565b97506156d36102208c0161532e565b96506156e26102408c0161532e565b95506156f16102608c0161532e565b94506102808b01356001600160401b038082111561570d578586fd5b6157198e838f0161527e565b90965094506102a08d0135915080821115615732578384fd5b61573e8e838f016152c4565b93506102c08d0135915080821115615754578283fd5b506157618d828e016152c4565b9150509295989b9194979a5092959850565b60008060008060008060008060008060006103008c8e031215615794578485fd5b61579e8d8d61515a565b9a506157ad8d60e08e0161521f565b99506157bc6102008d0161532e565b98506157cb6102208d0161532e565b97506157da6102408d0161532e565b96506157e96102608d0161532e565b95506001600160401b03806102808e01351115615804578586fd5b6158158e6102808f01358f0161527e565b90965094506102a08d013581101561582b578182fd5b61583c8e6102a08f01358f016152c4565b9350806102c08e0135111561584f578182fd5b506158618d6102c08e01358e016152c4565b915061566b6102e08d01615273565b6000806000806000806000806000806000806103408d8f031215615892578586fd5b61589c8e8e61515a565b9b506158ab8e60e08f0161521f565b9a506158ba6102008e0161532e565b99506158c96102208e0161532e565b98506158d86102408e0161532e565b97506158e76102608e0161532e565b96506001600160401b036102808e01351115615901578586fd5b6159128e6102808f01358f0161527e565b90965094506001600160401b036102a08e0135111561592f578081fd5b6159408e6102a08f01358f016152c4565b93506001600160401b036102c08e0135111561595a578081fd5b61596b8e6102c08f01358f016152c4565b925061597a6102e08e01615339565b915061598a8e6103008f016151cb565b90509295989b509295989b509295989b565b6000602082840312156159ad578081fd5b81516105b881615f47565b6000602082840312156159c9578081fd5b5035919050565b6000806000606084860312156159e4578081fd5b83356001600160401b03808211156159fa578283fd5b615a06878388016152c4565b945060208601359150808211156153bc578283fd5b60008060008060808587031215615a30578182fd5b84356001600160401b0380821115615a46578384fd5b615a52888389016152c4565b95506020870135915080821115615a67578384fd5b615a73888389016152c4565b94506040870135915080821115615a88578384fd5b615a94888389016152c4565b93506060870135915080821115615aa9578283fd5b50615ab6878288016152c4565b91505092959194509250565b60008060008060008060c08789031215615ada578384fd5b8635615ae581615f55565b95506020870135615af581615f55565b95989597505050506040840135936060810135936080820135935060a0909101359150565b60008151808452815b81811015615b3f57602081850181015186830182015201615b23565b81811115615b505782602083870101525b50601f01601f19169290920160200192915050565b61190160f01b81526002810192909252602282015260420190565b6001600160a01b0391909116815260200190565b6001600160a01b039485168152928416602084015292166040820152606081019190915260800190565b6001600160a01b038b811682528a81166020830152604082018a9052606082018990526080820188905260a08201879052610140820190615bfe87615f14565b8660c0840152615c0d86615f14565b8560e0840152615c1c85615f14565b84610100840152808416610120840152509b9a5050505050505050505050565b6001600160a01b03841681526000615c5384615f14565b83602083015260606040830152610db36060830184615b1a565b901515815260200190565b90815260200190565b9283526020830191909152604082015260600190565b93845260ff9290921660208401526040830152606082015260800190565b6000602082526105b86020830184615b1a565b6000610180615cd68f615f14565b8e8352806020840152615ceb8184018f615b1a565b90508281036040840152615cff818e615b1a565b6001600160a01b038d811660608601528482036080860152909150615d24828d615b1a565b9a1660a0840152505060c081019690965260e086019490945261010085019290925261012084015261014083015215156101609091015295945050505050565b60208082526026908201527f4f776e61626c653a206e6577206f776e657220697320746865207a65726f206160408201526564647265737360d01b606082015260800190565b6020808252818101527f4f776e61626c653a2063616c6c6572206973206e6f7420746865206f776e6572604082015260600190565b6020808252601f908201527f5265656e7472616e637947756172643a207265656e7472616e742063616c6c00604082015260600190565b6040518181016001600160401b0381118282101715615e3757615e37615efe565b604052919050565b60006001600160401b03821115615e5857615e58615efe565b5060200290565b60008219821115615e7257615e72615ee8565b500190565b600082615e9257634e487b7160e01b81526012600452602481fd5b500490565b6000816000190483118215151615615eb157615eb1615ee8565b500290565b600082821015615ec857615ec8615ee8565b500390565b6000600019821415615ee157615ee1615ee8565b5060010190565b634e487b7160e01b600052601160045260246000fd5b634e487b7160e01b600052604160045260246000fd5b6002811061369657634e487b7160e01b600052602160045260246000fd5b6001600160a01b038116811461369657600080fd5b801515811461369657600080fd5b6002811061369657600080fdfea2646970667358221220ee6c12b0f85bc08333726449705f74a422ed1cc491606970ae5cd8a9e78ca42f64736f6c63430008000033",
  "libraries": {
    "ECDSA": "0x4Bf17d93b63fE6AB1a0FbA4b1ff1Ef9b17F1f2CE"
  },
  "devdoc": {
    "kind": "dev",
    "methods": {
      "atomicMatch_(address[14],uint256[18],uint8[8],bytes,bytes,bytes,bytes,bytes,bytes,uint8[2],bytes32[5])": {
        "details": "Call atomicMatch - only accept transaction when buy order matching with sell order"
      },
      "owner()": {
        "details": "Returns the address of the current owner."
      },
      "renounceOwnership()": {
        "details": "Leaves the contract without owner. It will not be possible to call `onlyOwner` functions anymore. Can only be called by the current owner. NOTE: Renouncing ownership will leave the contract without an owner, thereby removing any functionality that is only available to the owner."
      },
      "transferOwnership(address)": {
        "details": "Transfers ownership of the contract to a new account (`newOwner`). Can only be called by the current owner."
      }
    },
    "version": 1
  },
  "userdoc": {
    "kind": "user",
    "methods": {},
    "version": 1
  },
  "storageLayout": {
    "storage": [
      {
        "astId": 22934,
        "contract": "contracts/market/NFTSpaceXExchange.sol:NFTSpaceXExchange",
        "label": "_status",
        "offset": 0,
        "slot": "0",
        "type": "t_uint256"
      },
      {
        "astId": 580,
        "contract": "contracts/market/NFTSpaceXExchange.sol:NFTSpaceXExchange",
        "label": "_owner",
        "offset": 0,
        "slot": "1",
        "type": "t_address"
      },
      {
        "astId": 22803,
        "contract": "contracts/market/NFTSpaceXExchange.sol:NFTSpaceXExchange",
        "label": "DOMAIN_SEPARATOR",
        "offset": 0,
        "slot": "2",
        "type": "t_bytes32"
      },
      {
        "astId": 13794,
        "contract": "contracts/market/NFTSpaceXExchange.sol:NFTSpaceXExchange",
        "label": "exchangeToken",
        "offset": 0,
        "slot": "3",
        "type": "t_contract(IERC20)20516"
      },
      {
        "astId": 13797,
        "contract": "contracts/market/NFTSpaceXExchange.sol:NFTSpaceXExchange",
        "label": "registry",
        "offset": 0,
        "slot": "4",
        "type": "t_contract(ProxyRegistry)16213"
      },
      {
        "astId": 13800,
        "contract": "contracts/market/NFTSpaceXExchange.sol:NFTSpaceXExchange",
        "label": "tokenTransferProxy",
        "offset": 0,
        "slot": "5",
        "type": "t_contract(TokenTransferProxy)16342"
      },
      {
        "astId": 13804,
        "contract": "contracts/market/NFTSpaceXExchange.sol:NFTSpaceXExchange",
        "label": "cancelledOrFinalized",
        "offset": 0,
        "slot": "6",
        "type": "t_mapping(t_bytes32,t_bool)"
      },
      {
        "astId": 13808,
        "contract": "contracts/market/NFTSpaceXExchange.sol:NFTSpaceXExchange",
        "label": "approvedOrders",
        "offset": 0,
        "slot": "7",
        "type": "t_mapping(t_bytes32,t_bool)"
      },
      {
        "astId": 13811,
        "contract": "contracts/market/NFTSpaceXExchange.sol:NFTSpaceXExchange",
        "label": "minimumMakerProtocolFee",
        "offset": 0,
        "slot": "8",
        "type": "t_uint256"
      },
      {
        "astId": 13814,
        "contract": "contracts/market/NFTSpaceXExchange.sol:NFTSpaceXExchange",
        "label": "minimumTakerProtocolFee",
        "offset": 0,
        "slot": "9",
        "type": "t_uint256"
      },
      {
        "astId": 13816,
        "contract": "contracts/market/NFTSpaceXExchange.sol:NFTSpaceXExchange",
        "label": "protocolFeeRecipient",
        "offset": 0,
        "slot": "10",
        "type": "t_address"
      }
    ],
    "types": {
      "t_address": {
        "encoding": "inplace",
        "label": "address",
        "numberOfBytes": "20"
      },
      "t_bool": {
        "encoding": "inplace",
        "label": "bool",
        "numberOfBytes": "1"
      },
      "t_bytes32": {
        "encoding": "inplace",
        "label": "bytes32",
        "numberOfBytes": "32"
      },
      "t_contract(IERC20)20516": {
        "encoding": "inplace",
        "label": "contract IERC20",
        "numberOfBytes": "20"
      },
      "t_contract(ProxyRegistry)16213": {
        "encoding": "inplace",
        "label": "contract ProxyRegistry",
        "numberOfBytes": "20"
      },
      "t_contract(TokenTransferProxy)16342": {
        "encoding": "inplace",
        "label": "contract TokenTransferProxy",
        "numberOfBytes": "20"
      },
      "t_mapping(t_bytes32,t_bool)": {
        "encoding": "mapping",
        "key": "t_bytes32",
        "label": "mapping(bytes32 => bool)",
        "numberOfBytes": "32",
        "value": "t_bool"
      },
      "t_uint256": {
        "encoding": "inplace",
        "label": "uint256",
        "numberOfBytes": "32"
      }
    }
  }
}