{
  "address": "0xDFB4ec1767505e11DE0625e2D9A51bE43398415D",
  "abi": [
    {
      "anonymous": false,
      "inputs": [
        {
          "indexed": true,
          "internalType": "address",
          "name": "beneficiary",
          "type": "address"
        },
        {
          "indexed": true,
          "internalType": "address",
          "name": "caller",
          "type": "address"
        }
      ],
      "name": "AdminRoleGranted",
      "type": "event"
    },
    {
      "anonymous": false,
      "inputs": [
        {
          "indexed": true,
          "internalType": "address",
          "name": "beneficiary",
          "type": "address"
        },
        {
          "indexed": true,
          "internalType": "address",
          "name": "caller",
          "type": "address"
        }
      ],
      "name": "AdminRoleRemoved",
      "type": "event"
    },
    {
      "anonymous": false,
      "inputs": [
        {
          "indexed": true,
          "internalType": "address",
          "name": "beneficiary",
          "type": "address"
        },
        {
          "indexed": true,
          "internalType": "address",
          "name": "caller",
          "type": "address"
        }
      ],
      "name": "MinterRoleGranted",
      "type": "event"
    },
    {
      "anonymous": false,
      "inputs": [
        {
          "indexed": true,
          "internalType": "address",
          "name": "beneficiary",
          "type": "address"
        },
        {
          "indexed": true,
          "internalType": "address",
          "name": "caller",
          "type": "address"
        }
      ],
      "name": "MinterRoleRemoved",
      "type": "event"
    },
    {
      "anonymous": false,
      "inputs": [
        {
          "indexed": true,
          "internalType": "address",
          "name": "beneficiary",
          "type": "address"
        },
        {
          "indexed": true,
          "internalType": "address",
          "name": "caller",
          "type": "address"
        }
      ],
      "name": "OperatorRoleGranted",
      "type": "event"
    },
    {
      "anonymous": false,
      "inputs": [
        {
          "indexed": true,
          "internalType": "address",
          "name": "beneficiary",
          "type": "address"
        },
        {
          "indexed": true,
          "internalType": "address",
          "name": "caller",
          "type": "address"
        }
      ],
      "name": "OperatorRoleRemoved",
      "type": "event"
    },
    {
      "anonymous": false,
      "inputs": [
        {
          "indexed": true,
          "internalType": "bytes32",
          "name": "role",
          "type": "bytes32"
        },
        {
          "indexed": true,
          "internalType": "bytes32",
          "name": "previousAdminRole",
          "type": "bytes32"
        },
        {
          "indexed": true,
          "internalType": "bytes32",
          "name": "newAdminRole",
          "type": "bytes32"
        }
      ],
      "name": "RoleAdminChanged",
      "type": "event"
    },
    {
      "anonymous": false,
      "inputs": [
        {
          "indexed": true,
          "internalType": "bytes32",
          "name": "role",
          "type": "bytes32"
        },
        {
          "indexed": true,
          "internalType": "address",
          "name": "account",
          "type": "address"
        },
        {
          "indexed": true,
          "internalType": "address",
          "name": "sender",
          "type": "address"
        }
      ],
      "name": "RoleGranted",
      "type": "event"
    },
    {
      "anonymous": false,
      "inputs": [
        {
          "indexed": true,
          "internalType": "bytes32",
          "name": "role",
          "type": "bytes32"
        },
        {
          "indexed": true,
          "internalType": "address",
          "name": "account",
          "type": "address"
        },
        {
          "indexed": true,
          "internalType": "address",
          "name": "sender",
          "type": "address"
        }
      ],
      "name": "RoleRevoked",
      "type": "event"
    },
    {
      "anonymous": false,
      "inputs": [
        {
          "indexed": true,
          "internalType": "address",
          "name": "beneficiary",
          "type": "address"
        },
        {
          "indexed": true,
          "internalType": "address",
          "name": "caller",
          "type": "address"
        }
      ],
      "name": "TokenMinterRoleGranted",
      "type": "event"
    },
    {
      "anonymous": false,
      "inputs": [
        {
          "indexed": true,
          "internalType": "address",
          "name": "beneficiary",
          "type": "address"
        },
        {
          "indexed": true,
          "internalType": "address",
          "name": "caller",
          "type": "address"
        }
      ],
      "name": "TokenMinterRoleRemoved",
      "type": "event"
    },
    {
      "inputs": [],
      "name": "DEFAULT_ADMIN_ROLE",
      "outputs": [
        {
          "internalType": "bytes32",
          "name": "",
          "type": "bytes32"
        }
      ],
      "stateMutability": "view",
      "type": "function"
    },
    {
      "inputs": [],
      "name": "MINTER_ROLE",
      "outputs": [
        {
          "internalType": "bytes32",
          "name": "",
          "type": "bytes32"
        }
      ],
      "stateMutability": "view",
      "type": "function"
    },
    {
      "inputs": [],
      "name": "OPERATOR_ROLE",
      "outputs": [
        {
          "internalType": "bytes32",
          "name": "",
          "type": "bytes32"
        }
      ],
      "stateMutability": "view",
      "type": "function"
    },
    {
      "inputs": [],
      "name": "TOKEN_MINTER_ROLE",
      "outputs": [
        {
          "internalType": "bytes32",
          "name": "",
          "type": "bytes32"
        }
      ],
      "stateMutability": "view",
      "type": "function"
    },
    {
      "inputs": [
        {
          "internalType": "address",
          "name": "_beneficiary",
          "type": "address"
        }
      ],
      "name": "addAdminRole",
      "outputs": [],
      "stateMutability": "nonpayable",
      "type": "function"
    },
    {
      "inputs": [
        {
          "internalType": "address",
          "name": "_beneficiary",
          "type": "address"
        }
      ],
      "name": "addMinterRole",
      "outputs": [],
      "stateMutability": "nonpayable",
      "type": "function"
    },
    {
      "inputs": [
        {
          "internalType": "address",
          "name": "_beneficiary",
          "type": "address"
        }
      ],
      "name": "addOperatorRole",
      "outputs": [],
      "stateMutability": "nonpayable",
      "type": "function"
    },
    {
      "inputs": [
        {
          "internalType": "address",
          "name": "_beneficiary",
          "type": "address"
        }
      ],
      "name": "addTokenMinterRole",
      "outputs": [],
      "stateMutability": "nonpayable",
      "type": "function"
    },
    {
      "inputs": [
        {
          "internalType": "bytes32",
          "name": "role",
          "type": "bytes32"
        }
      ],
      "name": "getRoleAdmin",
      "outputs": [
        {
          "internalType": "bytes32",
          "name": "",
          "type": "bytes32"
        }
      ],
      "stateMutability": "view",
      "type": "function"
    },
    {
      "inputs": [
        {
          "internalType": "bytes32",
          "name": "role",
          "type": "bytes32"
        },
        {
          "internalType": "uint256",
          "name": "index",
          "type": "uint256"
        }
      ],
      "name": "getRoleMember",
      "outputs": [
        {
          "internalType": "address",
          "name": "",
          "type": "address"
        }
      ],
      "stateMutability": "view",
      "type": "function"
    },
    {
      "inputs": [
        {
          "internalType": "bytes32",
          "name": "role",
          "type": "bytes32"
        }
      ],
      "name": "getRoleMemberCount",
      "outputs": [
        {
          "internalType": "uint256",
          "name": "",
          "type": "uint256"
        }
      ],
      "stateMutability": "view",
      "type": "function"
    },
    {
      "inputs": [
        {
          "internalType": "bytes32",
          "name": "role",
          "type": "bytes32"
        },
        {
          "internalType": "address",
          "name": "account",
          "type": "address"
        }
      ],
      "name": "grantRole",
      "outputs": [],
      "stateMutability": "nonpayable",
      "type": "function"
    },
    {
      "inputs": [
        {
          "internalType": "address",
          "name": "_address",
          "type": "address"
        }
      ],
      "name": "hasAdminRole",
      "outputs": [
        {
          "internalType": "bool",
          "name": "",
          "type": "bool"
        }
      ],
      "stateMutability": "view",
      "type": "function"
    },
    {
      "inputs": [
        {
          "internalType": "address",
          "name": "_address",
          "type": "address"
        }
      ],
      "name": "hasMinterRole",
      "outputs": [
        {
          "internalType": "bool",
          "name": "",
          "type": "bool"
        }
      ],
      "stateMutability": "view",
      "type": "function"
    },
    {
      "inputs": [
        {
          "internalType": "address",
          "name": "_address",
          "type": "address"
        }
      ],
      "name": "hasOperatorRole",
      "outputs": [
        {
          "internalType": "bool",
          "name": "",
          "type": "bool"
        }
      ],
      "stateMutability": "view",
      "type": "function"
    },
    {
      "inputs": [
        {
          "internalType": "bytes32",
          "name": "role",
          "type": "bytes32"
        },
        {
          "internalType": "address",
          "name": "account",
          "type": "address"
        }
      ],
      "name": "hasRole",
      "outputs": [
        {
          "internalType": "bool",
          "name": "",
          "type": "bool"
        }
      ],
      "stateMutability": "view",
      "type": "function"
    },
    {
      "inputs": [
        {
          "internalType": "address",
          "name": "_address",
          "type": "address"
        }
      ],
      "name": "hasTokenMinterRole",
      "outputs": [
        {
          "internalType": "bool",
          "name": "",
          "type": "bool"
        }
      ],
      "stateMutability": "view",
      "type": "function"
    },
    {
      "inputs": [
        {
          "internalType": "address",
          "name": "_admin",
          "type": "address"
        }
      ],
      "name": "initAccessControls",
      "outputs": [],
      "stateMutability": "nonpayable",
      "type": "function"
    },
    {
      "inputs": [
        {
          "internalType": "address",
          "name": "_beneficiary",
          "type": "address"
        }
      ],
      "name": "removeAdminRole",
      "outputs": [],
      "stateMutability": "nonpayable",
      "type": "function"
    },
    {
      "inputs": [
        {
          "internalType": "address",
          "name": "_beneficiary",
          "type": "address"
        }
      ],
      "name": "removeMinterRole",
      "outputs": [],
      "stateMutability": "nonpayable",
      "type": "function"
    },
    {
      "inputs": [
        {
          "internalType": "address",
          "name": "_beneficiary",
          "type": "address"
        }
      ],
      "name": "removeOperatorRole",
      "outputs": [],
      "stateMutability": "nonpayable",
      "type": "function"
    },
    {
      "inputs": [
        {
          "internalType": "address",
          "name": "_beneficiary",
          "type": "address"
        }
      ],
      "name": "removeTokenMinterRole",
      "outputs": [],
      "stateMutability": "nonpayable",
      "type": "function"
    },
    {
      "inputs": [
        {
          "internalType": "bytes32",
          "name": "role",
          "type": "bytes32"
        },
        {
          "internalType": "address",
          "name": "account",
          "type": "address"
        }
      ],
      "name": "renounceRole",
      "outputs": [],
      "stateMutability": "nonpayable",
      "type": "function"
    },
    {
      "inputs": [
        {
          "internalType": "bytes32",
          "name": "role",
          "type": "bytes32"
        },
        {
          "internalType": "address",
          "name": "account",
          "type": "address"
        }
      ],
      "name": "revokeRole",
      "outputs": [],
      "stateMutability": "nonpayable",
      "type": "function"
    },
    {
      "inputs": [
        {
          "internalType": "bytes4",
          "name": "interfaceId",
          "type": "bytes4"
        }
      ],
      "name": "supportsInterface",
      "outputs": [
        {
          "internalType": "bool",
          "name": "",
          "type": "bool"
        }
      ],
      "stateMutability": "view",
      "type": "function"
    }
  ],
  "transactionHash": "0xafc083d4edd7c3784675d7419b2198fee54a83f1c96bd5d526b0972ebfd600a1",
  "args": [],
  "solcInputHash": "261d3c97db2adb9a635333f32f19809a",
  "bytecode": "0x608060405234801561001057600080fd5b50610e97806100206000396000f3fe608060405234801561001057600080fd5b50600436106101735760003560e01c806391d14854116100de578063ca15c87311610097578063dccfe31011610071578063dccfe31014610318578063e6594abd1461032b578063f5b541a61461033e578063fc4e3e0a1461034657610173565b8063ca15c873146102ea578063d5391393146102fd578063d547741f1461030557610173565b806391d14854146102835780639478941c14610296578063a217fddf146102a9578063adbf3776146102b1578063b7928b1d146102c4578063c395fcb3146102d757610173565b806336568abe1161013057806336568abe1461020f578063451c9c5f14610222578063512b336d1461023557806354f1e1261461023d5780636595171c146102505780639010d07c1461026357610173565b806301ffc9a714610178578063099db017146101a157806324294a88146101b4578063248a9ca3146101c95780632f2ff15d146101e9578063361dbb4a146101fc575b600080fd5b61018b610186366004610c5c565b610359565b6040516101989190610c9f565b60405180910390f35b61018b6101af366004610bde565b610386565b6101c76101c2366004610bde565b6103a0565b005b6101dc6101d7366004610bf8565b610402565b6040516101989190610caa565b6101c76101f7366004610c10565b610417565b61018b61020a366004610bde565b610468565b6101c761021d366004610c10565b610482565b6101c7610230366004610bde565b6104c4565b6101dc610526565b6101c761024b366004610bde565b610538565b6101c761025e366004610bde565b61059a565b610276610271366004610c3b565b6105ef565b6040516101989190610c8b565b61018b610291366004610c10565b610610565b6101c76102a4366004610bde565b610628565b6101dc61068a565b6101c76102bf366004610bde565b61068f565b6101c76102d2366004610bde565b6106f1565b61018b6102e5366004610bde565b610753565b6101dc6102f8366004610bf8565b61075f565b6101dc610776565b6101c7610313366004610c10565b610788565b6101c7610326366004610bde565b6107c2565b6101c7610339366004610bde565b610817565b6101dc61087a565b61018b610354366004610bde565b61088c565b60006001600160e01b03198216637965db0b60e01b148061037e575061037e826108a6565b90505b919050565b600061037e600080516020610e2283398151915283610610565b6103b8600080516020610e4283398151915282610417565b6103c06108bf565b6001600160a01b0316816001600160a01b03167ffcfa34863620fce080358c16f54b9fa9541b6cbead0bbaf30ac260b8207fc29b60405160405180910390a350565b60009081526020819052604090206002015490565b600082815260208190526040902060020154610435906102916108bf565b61045a5760405162461bcd60e51b815260040161045190610d63565b60405180910390fd5b61046482826108c3565b5050565b600061037e600080516020610e4283398151915283610610565b61048a6108bf565b6001600160a01b0316816001600160a01b0316146104ba5760405162461bcd60e51b815260040161045190610d2c565b610464828261092c565b6104dc600080516020610e4283398151915282610788565b6104e46108bf565b6001600160a01b0316816001600160a01b03167feea0f3126097e7f3635299bc7eded8bd9aa1f79a894d7f52dfcae976d698cd5d60405160405180910390a350565b600080516020610e4283398151915281565b610550600080516020610e2283398151915282610788565b6105586108bf565b6001600160a01b0316816001600160a01b03167f56692a161ffec953ddf9def93b958ea8d1ec95e21b80870c66be91a4374dc4e360405160405180910390a350565b6105a5600082610417565b6105ad6108bf565b6001600160a01b0316816001600160a01b03167f2570ac42fd8b322dc453ada624dc2ed0e9bdd67f16f201a25bbd30468f2aa18760405160405180910390a350565b60008281526020819052604081206106079083610995565b90505b92915050565b600082815260208190526040812061060790836109a1565b610640600080516020610e0283398151915282610788565b6106486108bf565b6001600160a01b0316816001600160a01b03167f70b25138b6fadeb9992d18b9653564271823e34b3e3257515d12a6d4b15fcddf60405160405180910390a350565b600081565b6106a7600080516020610e2283398151915282610417565b6106af6108bf565b6001600160a01b0316816001600160a01b03167f0be6ab9784c7401fafb73f7bc47bc67cc4ef8c47a60ad3cb66d1de0353a0784c60405160405180910390a350565b610709600080516020610e0283398151915282610417565b6107116108bf565b6001600160a01b0316816001600160a01b03167f2d45ee102874989882745a26688d0b4fffee125a18df26536b12582c7fde4e1760405160405180910390a350565b600061037e8183610610565b600081815260208190526040812061037e906109b6565b600080516020610e2283398151915281565b6000828152602081905260409020600201546107a6906102916108bf565b6104ba5760405162461bcd60e51b815260040161045190610d63565b6107cd600082610788565b6107d56108bf565b6001600160a01b0316816001600160a01b03167f21ba1239795d4e22874e3dc55f0a9d7b65bfb23069d32965d7c23be9524ccf9560405160405180910390a350565b60015460ff161561083a5760405162461bcd60e51b815260040161045190610cf5565b6001600160a01b0381166108605760405162461bcd60e51b815260040161045190610d91565b61086b60008261045a565b506001805460ff191681179055565b600080516020610e0283398151915281565b600061037e600080516020610e0283398151915283610610565b6001600160e01b031981166301ffc9a760e01b14919050565b3390565b60008281526020819052604090206108db90826109c1565b15610464576108e86108bf565b6001600160a01b0316816001600160a01b0316837f2f8788117e7eff1d82e926ec794901d17c78024a50270940304540a733656f0d60405160405180910390a45050565b600082815260208190526040902061094490826109d6565b15610464576109516108bf565b6001600160a01b0316816001600160a01b0316837ff6391f5c32d9c69d2a47ea670b442974b53935d1edc7fd64eb21e047a839171b60405160405180910390a45050565b600061060783836109eb565b6000610607836001600160a01b038416610a44565b600061037e82610a5c565b6000610607836001600160a01b038416610a60565b6000610607836001600160a01b038416610aaa565b81546000908210610a0e5760405162461bcd60e51b815260040161045190610cb3565b826000018281548110610a3157634e487b7160e01b600052603260045260246000fd5b9060005260206000200154905092915050565b60009081526001919091016020526040902054151590565b5490565b6000610a6c8383610a44565b610aa25750815460018181018455600084815260208082209093018490558454848252828601909352604090209190915561060a565b50600061060a565b60008181526001830160205260408120548015610bbd576000610ace600183610dd4565b8554909150600090610ae290600190610dd4565b90506000866000018281548110610b0957634e487b7160e01b600052603260045260246000fd5b9060005260206000200154905080876000018481548110610b3a57634e487b7160e01b600052603260045260246000fd5b600091825260209091200155610b51836001610dbc565b60008281526001890160205260409020558654879080610b8157634e487b7160e01b600052603160045260246000fd5b6001900381819060005260206000200160009055905586600101600087815260200190815260200160002060009055600194505050505061060a565b600091505061060a565b80356001600160a01b038116811461038157600080fd5b600060208284031215610bef578081fd5b61060782610bc7565b600060208284031215610c09578081fd5b5035919050565b60008060408385031215610c22578081fd5b82359150610c3260208401610bc7565b90509250929050565b60008060408385031215610c4d578182fd5b50508035926020909101359150565b600060208284031215610c6d578081fd5b81356001600160e01b031981168114610c84578182fd5b9392505050565b6001600160a01b0391909116815260200190565b901515815260200190565b90815260200190565b60208082526022908201527f456e756d657261626c655365743a20696e646578206f7574206f6620626f756e604082015261647360f01b606082015260800190565b60208082526018908201527f4d53413a20416c726561647920696e697469616c697365640000000000000000604082015260600190565b6020808252601a908201527f41433a206d7573742072656e6f756e636520796f757273656c66000000000000604082015260600190565b60208082526014908201527320a19d1036bab9ba1031329030b71030b236b4b760611b604082015260600190565b6020808252601190820152704d53413a207a65726f206164647265737360781b604082015260600190565b60008219821115610dcf57610dcf610deb565b500190565b600082821015610de657610de6610deb565b500390565b634e487b7160e01b600052601160045260246000fdfe97667070c54ef182b0f5858b034beac1b6f3089aa2d3188bb1e8929f4fa9b9299f2df0fed2c77648de5860a4cc508cd0818c85b8b8a1ab4ceeef8d981c8956a6b3bb6029312d1001076133d40b75b7eca92ba54e4963b3ce24e1486a3d5a038ba264697066735822122009782fe7e6047dbb79993b3ca0098b7f28b4ce75f89d3038bb947de20b3c846164736f6c63430008000033",
  "libraries": {},
  "devdoc": {
    "kind": "dev",
    "methods": {
      "getRoleAdmin(bytes32)": {
        "details": "Returns the admin role that controls `role`. See {grantRole} and {revokeRole}. To change a role's admin, use {AccessControl-_setRoleAdmin}."
      },
      "grantRole(bytes32,address)": {
        "details": "Grants `role` to `account`. If `account` had not been already granted `role`, emits a {RoleGranted} event. Requirements: - the caller must have ``role``'s admin role."
      },
      "hasRole(bytes32,address)": {
        "details": "Returns `true` if `account` has been granted `role`."
      },
      "renounceRole(bytes32,address)": {
        "details": "Revokes `role` from the calling account. Roles are often managed via {grantRole} and {revokeRole}: this function's purpose is to provide a mechanism for accounts to lose their privileges if they are compromised (such as when a trusted device is misplaced). If the calling account had been granted `role`, emits a {RoleRevoked} event. Requirements: - the caller must be `account`."
      },
      "revokeRole(bytes32,address)": {
        "details": "Revokes `role` from `account`. If `account` had been granted `role`, emits a {RoleRevoked} event. Requirements: - the caller must have ``role``'s admin role."
      },
      "supportsInterface(bytes4)": {
        "details": "See {IERC165-supportsInterface}."
      }
    },
    "version": 1
  },
  "userdoc": {
    "kind": "user",
    "methods": {},
    "version": 1
  },
  "storageLayout": {
    "storage": [
      {
        "astId": 26,
        "contract": "contracts/access/MetaSpacecyAccessControls.sol:MetaspacecyAccessControls",
        "label": "_roles",
        "offset": 0,
        "slot": "0",
        "type": "t_mapping(t_bytes32,t_struct(RoleData)21_storage)"
      },
      {
        "astId": 481,
        "contract": "contracts/access/MetaSpacecyAccessControls.sol:MetaspacecyAccessControls",
        "label": "initAccess",
        "offset": 0,
        "slot": "1",
        "type": "t_bool"
      }
    ],
    "types": {
      "t_array(t_bytes32)dyn_storage": {
        "base": "t_bytes32",
        "encoding": "dynamic_array",
        "label": "bytes32[]",
        "numberOfBytes": "32"
      },
      "t_bool": {
        "encoding": "inplace",
        "label": "bool",
        "numberOfBytes": "1"
      },
      "t_bytes32": {
        "encoding": "inplace",
        "label": "bytes32",
        "numberOfBytes": "32"
      },
      "t_mapping(t_bytes32,t_struct(RoleData)21_storage)": {
        "encoding": "mapping",
        "key": "t_bytes32",
        "label": "mapping(bytes32 => struct AccessControl.RoleData)",
        "numberOfBytes": "32",
        "value": "t_struct(RoleData)21_storage"
      },
      "t_mapping(t_bytes32,t_uint256)": {
        "encoding": "mapping",
        "key": "t_bytes32",
        "label": "mapping(bytes32 => uint256)",
        "numberOfBytes": "32",
        "value": "t_uint256"
      },
      "t_struct(AddressSet)37597_storage": {
        "encoding": "inplace",
        "label": "struct EnumerableSet.AddressSet",
        "members": [
          {
            "astId": 37596,
            "contract": "contracts/access/MetaSpacecyAccessControls.sol:MetaspacecyAccessControls",
            "label": "_inner",
            "offset": 0,
            "slot": "0",
            "type": "t_struct(Set)37320_storage"
          }
        ],
        "numberOfBytes": "64"
      },
      "t_struct(RoleData)21_storage": {
        "encoding": "inplace",
        "label": "struct AccessControl.RoleData",
        "members": [
          {
            "astId": 18,
            "contract": "contracts/access/MetaSpacecyAccessControls.sol:MetaspacecyAccessControls",
            "label": "members",
            "offset": 0,
            "slot": "0",
            "type": "t_struct(AddressSet)37597_storage"
          },
          {
            "astId": 20,
            "contract": "contracts/access/MetaSpacecyAccessControls.sol:MetaspacecyAccessControls",
            "label": "adminRole",
            "offset": 0,
            "slot": "2",
            "type": "t_bytes32"
          }
        ],
        "numberOfBytes": "96"
      },
      "t_struct(Set)37320_storage": {
        "encoding": "inplace",
        "label": "struct EnumerableSet.Set",
        "members": [
          {
            "astId": 37315,
            "contract": "contracts/access/MetaSpacecyAccessControls.sol:MetaspacecyAccessControls",
            "label": "_values",
            "offset": 0,
            "slot": "0",
            "type": "t_array(t_bytes32)dyn_storage"
          },
          {
            "astId": 37319,
            "contract": "contracts/access/MetaSpacecyAccessControls.sol:MetaspacecyAccessControls",
            "label": "_indexes",
            "offset": 0,
            "slot": "1",
            "type": "t_mapping(t_bytes32,t_uint256)"
          }
        ],
        "numberOfBytes": "64"
      },
      "t_uint256": {
        "encoding": "inplace",
        "label": "uint256",
        "numberOfBytes": "32"
      }
    }
  }
}